:020000040000fa
:080000000002040000000000f2
:020000040000fa
:04000800640300008d
:020000040000fa
:04000c007603000077
:020000040000fa
:040010008603000063
:020000040000fa
:040014006c03000079
:020000040000fa
:040018007e03000063
:020000040000fa
:04001c003a040000a2
:020000040000fa
:040020008e0300004b
:020000040000fa
:040024003a0400009a
:020000040000fa
:040028003a04000096
:020000040000fa
:04002c009603000037
:020000040000fa
:040030003a0400008e
:020000040000fa
:040034003a0400008a
:020000040000fa
:040038003a04000086
:020000040000fa
:04003c003a04000082
:020000040000fa
:040040003a0400007e
:020000040000fa
:040044003a0400007a
:020000040000fa
:040048003a04000076
:020000040000fa
:04004c003a04000072
:020000040000fa
:040050003a0400006e
:020000040000fa
:040054003a0400006a
:020000040000fa
:040058003a04000066
:020000040000fa
:04005c003a04000062
:020000040000fa
:040060003a0400005e
:020000040000fa
:040064003a0400005a
:020000040000fa
:040068003a04000056
:020000040000fa
:04006c003a04000052
:020000040000fa
:040070003a0400004e
:020000040000fa
:040074003a0400004a
:020000040000fa
:040078003a04000046
:020000040000fa
:04007c003a04000042
:020000040000fa
:040080003a0400003e
:020000040000fa
:040084003a0400003a
:020000040000fa
:040088003a04000036
:020000040000fa
:04008c003a04000032
:020000040000fa
:040090003a0400002e
:020000040000fa
:040094003a0400002a
:020000040000fa
:040098003a04000026
:020000040000fa
:04009c003a04000022
:020000040000fa
:0400a0003a0400001e
:020000040000fa
:0400a4003a0400001a
:020000040000fa
:0400a8003a04000016
:020000040000fa
:0400ac003a04000012
:020000040000fa
:0400b0003a0400000e
:020000040000fa
:0400b4003a0400000a
:020000040000fa
:0400b8003a04000006
:020000040000fa
:0400bc003a04000002
:020000040000fa
:0400c0003a040000fe
:020000040000fa
:0400c4003a040000fa
:020000040000fa
:0400c8003a040000f6
:020000040000fa
:0400cc003a040000f2
:020000040000fa
:0400d0003a040000ee
:020000040000fa
:0400d4003a040000ea
:020000040000fa
:0400d8003a040000e6
:020000040000fa
:0400dc003a040000e2
:020000040000fa
:0400e0003a040000de
:020000040000fa
:0400e4003a040000da
:020000040000fa
:0400e8003a040000d6
:020000040000fa
:0400ec003a040000d2
:020000040000fa
:0400f0003a040000ce
:020000040000fa
:0400f4003a040000ca
:020000040000fa
:0400f8003a040000c6
:020000040000fa
:0400fc003a040000c2
:020000040000fa
:040100003a040000bd
:020000040000fa
:040104003a040000b9
:020000040000fa
:040108003a040000b5
:020000040000fa
:04010c003a040000b1
:020000040000fa
:040110003a040000ad
:020000040000fa
:040114003a040000a9
:020000040000fa
:040118003a040000a5
:020000040000fa
:04011c003a040000a1
:020000040000fa
:040120003a0400009d
:020000040000fa
:040124003a04000099
:020000040000fa
:040128003a04000095
:020000040000fa
:04012c003a04000091
:020000040000fa
:040130003a0400008d
:020000040000fa
:040134003a04000089
:020000040000fa
:040138003a04000085
:020000040000fa
:04013c003a04000081
:020000040000fa
:040140003a0400007d
:020000040000fa
:040144003a04000079
:020000040000fa
:040148003a04000075
:020000040000fa
:04014c003a04000071
:020000040000fa
:040150003a0400006d
:020000040000fa
:040154003a04000069
:020000040000fa
:040158003a04000065
:020000040000fa
:04015c003a04000061
:020000040000fa
:040160003a0400005d
:020000040000fa
:040164003a04000059
:020000040000fa
:040168003a04000055
:020000040000fa
:04016c003a04000051
:020000040000fa
:040170003a0400004d
:020000040000fa
:040174003a04000049
:020000040000fa
:040178003a04000045
:020000040000fa
:04017c003a04000041
:020000040000fa
:040180003a0400003d
:020000040000fa
:040184003a04000039
:020000040000fa
:040188003a04000035
:020000040000fa
:04018c003a04000031
:020000040000fa
:040190003a0400002d
:020000040000fa
:040194003a04000029
:020000040000fa
:040198003a04000025
:020000040000fa
:04019c003a04000021
:020000040000fa
:0401a0003a0400001d
:020000040000fa
:0401a4003a04000019
:020000040000fa
:0401a8003a04000015
:020000040000fa
:0401ac003a04000011
:020000040000fa
:0401b0003a0400000d
:020000040000fa
:0401b4003a04000009
:020000040000fa
:0401b8003a04000005
:020000040000fa
:0401bc003a04000001
:020000040000fa
:0401c0003a040000fd
:020000040000fa
:0401c4003a040000f9
:020000040000fa
:0401c8003a040000f5
:020000040000fa
:0401cc003a040000f1
:020000040000fa
:0401d0003a040000ed
:020000040000fa
:0401d4003a040000e9
:020000040000fa
:0401d8003a040000e5
:020000040000fa
:0401dc003a040000e1
:020000040000fa
:0401e0003a040000dd
:020000040000fa
:0401e4003a040000d9
:020000040000fa
:0401e8003a040000d5
:020000040000fa
:0401ec003a040000d1
:020000040000fa
:0401f0003a040000cd
:020000040000fa
:0401f4003a040000c9
:020000040000fa
:0401f8003a040000c5
:020000040000fa
:0401fc003a040000c1
:020000040000fa
:040200003a040000bc
:020000040000fa
:040204003a040000b8
:020000040000fa
:040208003a040000b4
:020000040000fa
:04020c003a040000b0
:020000040000fa
:040210003a040000ac
:020000040000fa
:040214003a040000a8
:020000040000fa
:040218003a040000a4
:020000040000fa
:04021c003a040000a0
:020000040000fa
:040220003a0400009c
:020000040000fa
:040224003a04000098
:020000040000fa
:040228003a04000094
:020000040000fa
:04022c003a04000090
:020000040000fa
:040230003a0400008c
:020000040000fa
:040234003a04000088
:020000040000fa
:040238003a04000084
:020000040000fa
:04023c003a04000080
:020000040000fa
:040240003a0400007c
:020000040000fa
:040244003a04000078
:020000040000fa
:040248003a04000074
:020000040000fa
:04024c003a04000070
:020000040000fa
:040250003a0400006c
:020000040000fa
:040254003a04000068
:020000040000fa
:040258003a04000064
:020000040000fa
:04025c003a04000060
:020000040000fa
:040260003a0400005c
:020000040000fa
:040264003a04000058
:020000040000fa
:040268003a04000054
:020000040000fa
:04026c003a04000050
:020000040000fa
:040270003a0400004c
:020000040000fa
:040274003a04000048
:020000040000fa
:040278003a04000044
:020000040000fa
:04027c003a04000040
:020000040000fa
:040280003a0400003c
:020000040000fa
:040284003a04000038
:020000040000fa
:040288003a04000034
:020000040000fa
:04028c003a04000030
:020000040000fa
:040290003a0400002c
:020000040000fa
:040294003a04000028
:020000040000fa
:040298003a04000024
:020000040000fa
:04029c003a04000020
:020000040000fa
:0402a0003a0400001c
:020000040000fa
:0402a4003a04000018
:020000040000fa
:0402a8003a04000014
:020000040000fa
:0402ac003a04000010
:020000040000fa
:0402b0003a0400000c
:020000040000fa
:0402b4003a04000008
:020000040000fa
:0402b8003a04000004
:020000040000fa
:0402bc003a04000000
:020000040000fa
:0402c0003a040000fc
:020000040000fa
:0402c4003a040000f8
:020000040000fa
:0402c8003a040000f4
:020000040000fa
:0402cc003a040000f0
:020000040000fa
:0402d0003a040000ec
:020000040000fa
:0402d4003a040000e8
:020000040000fa
:0402d8003a040000e4
:020000040000fa
:0402dc003a040000e0
:020000040000fa
:0402e0003a040000dc
:020000040000fa
:0402e4003a040000d8
:020000040000fa
:0402e8003a040000d4
:020000040000fa
:0402ec003a040000d0
:020000040000fa
:0402f0003a040000cc
:020000040000fa
:0402f4003a040000c8
:020000040000fa
:0402f8003a040000c4
:020000040000fa
:0402fc003a040000c0
:020000040000fa
:040300003a040000bb
:020000040000fa
:040304003a040000b7
:020000040000fa
:040308003a040000b3
:020000040000fa
:04030c003a040000af
:020000040000fa
:040310003a040000ab
:020000040000fa
:040314003a040000a7
:020000040000fa
:040318003a040000a3
:020000040000fa
:04031c003a0400009f
:020000040000fa
:040320003a0400009b
:020000040000fa
:100400004f1421000eff24000e0188000000200080
:100410000000e000020032000001200020028800fd
:10042000140007008a0107000000e00003003a0002
:1004300000a721000100200002003700000020007a
:1004400001002000810f70004220ae000f00070065
:10045000000020000000e0004220ae00000002008a
:100460000000000066160200000000000040da00f4
:100470000000fe00e01220000000e0000200320058
:10048000002020009001880000000600a1028800e2
:10049000800478000000eb001f003700e284440075
:1004a00054a0b4009905ba00e284440054a0b400fa
:1004b0009906ba00e284440054a0b4000006eb00a0
:1004c000476fde00fd07b200ae018800636ce100fb
:1004d00003003a000ad801000000eb000e003700cc
:1004e000606ce10008003a00004deb000a05e800ee
:1004f000020039003420ec000af0a0008b05e9006e
:10050000f9ff3e00040037006168e100010032009d
:100510000086eb000b00070019c7ba001905ba00e6
:100520000e04e00003003a000a00e000dbff3a009e
:1005300000000600fe07b200ae0288008a047800c0
:10054000f5ff37000cd0a300e20f4d001c0039006e
:1005500089027800354dba000a05e800020039002a
:100560003420ec000af0a0008b05e9000f003200f7
:10057000254dba000a05e800020039003420ec00dd
:100580000af0a0008b05e900080032000c00e00032
:100590000600320015cdba000a05e8000200390055
:1005a0003420ec000af0a0008b05e9008984e80003
:1005b00054a0b4000b00e000e2ff3a000000060087
:1005c0009902ba00055d78008b05e900f7ff32005b
:1005d000c82ade00055d78008b05e900f3ff3200d4
:1005e0000c00e000f1ff320019ddba00eeff370029
:1005f0006100e10001003200100005003200f80047
:100600003400f8000002be00930188003200be00f2
:100610000100e0000700320032037800c733de003b
:10062000a7018800f607b2007f30e1000400320025
:10063000200020003400f9003200f900000006001c
:100640008100e9000500e00003003a000180090094
:1006500032100300edff37000180090032900300e3
:10066000d561ae00e9ff370030002000f1ff370010
:1006700050052000b00e8800a00a2000b00e8800af
:10068000d3e1a8000000060050052000b00e88004d
:10069000a00a2000b00e8800d3e1a90000000600e7
:1006a000d4120400000000002a130400000000001f
:1006b000ba05040000000000620c04000000000005
:1006c00000000400000000003600f800c028a90067
:1006d0000000eb006b0c07003600f8006d0c070003
:1006e000c048a90010002000660c07003600f80082
:1006f000c068a90020002000620c07003600f80046
:10070000c088a900300020005e0c07003600f80009
:10071000c608a900700020005a0c07003600f80037
:10072000c408a900b0002000560c07003600f800ed
:10073000809fbe00829fbe00849fbe00869fbe0039
:100740003200f8003400f80010002000a0018800fa
:1007500000202000900188000200fa000040eb0019
:10076000004f7800360037001e80fb006a00b90099
:1007700080007800a009210000804000100078006f
:100780000000e0002d0032001e81fb006a10b9005d
:1007900000007800e6004000a00921000080400031
:1007a0001000be0061004000e08048006a11b900fe
:1007b00082017800020a2100028141000089be0006
:1007c0001e80fb006a00b90000007800e6004000cf
:1007d000a0092100008040001001be001e80fb0027
:1007e0006a00b900000078008080e800a0092100bc
:1007f000008040001000be00800f5100818f590022
:100800000e003a001e80fb006a00b90080007800ec
:10081000a0092100008040001000780000000100c5
:100820001e80fb006a00b90080007800000a2100e9
:10083000008140006000b8000089be001e4fe80043
:100840001e407800e94f5000c7ff36000028a9007d
:100850000080fa003400f9003200f9004f03be00b6
:100860004f02be004f01be004f00be003600f9002f
:10087000004006000040da000000fe000a00fa0016
:1008800011002000b1bf9f00c0bf9f006a805700c9
:10089000c10407004fb897000080fa00000006006e
:1008a0000a00fa00e20f500034003e00008a800087
:1008b000e10f500003003200e20f500011003a0037
:1008c0000c003700832320000300e00001003a0001
:1008d0000040da003802e200020035004022ef005a
:1008e00039e2a80038a2ab000d003a0038a2a800f7
:1008f0000b003700032620000300e00001003a004f
:100900000040da006002e200020035006822ef00d9
:1009100061e2a80060a2ab0001003a0060a2a8005a
:10092000820178000b0037003102fb00e10f50001c
:1009300004003a003e82ab00feff3a0044128800f9
:10094000030037006682ab00feff3a008413880084
:100950008301e9000300e000f3ff3a00e10f5000db
:1009600003003a003ea2ab00feff32000b0037004e
:1009700066a2ab00feff3200080037003300200003
:10098000b3bf9f00c0bf9f00d1bf9f00e2bf9f00c9
:100990006a805700820407006fb997000200780050
:1009a0000080fa00000006000a00fa005100200052
:1009b000b1bf9f00c0bf9f006a8057007a04070044
:1009c0005fb897000080fa0000000600889fbe0014
:1009d00080047800108a80000000e00004003a00e3
:1009e0000e0007000084eb000000e0000800350066
:1009f000188a80000900e000050032000900440068
:100a0000060007000000e00001003d000084eb004c
:100a1000080078004f04be00000006008000780047
:100a20000100e00003003a0000002000108a880066
:100a3000000005000080eb0002002000828f5000c3
:100a400002003e00118a88000000eb000000060052
:100a5000000005006022b800060220000000d0005f
:100a60008180d2000482d2008582d2000000a000e2
:100a70000202520083825a00030031000202420047
:100a800083824a000000a1000603e900f3ff3a0058
:100a900000000600800178000200370081597800cc
:100aa0000201e9000200e000fcff3a00000006003d
:100ab000a103210061010700800078000080eb00a5
:100ac0000100e00004003500a1032100a000200087
:100ad000020007004f80de0000000600889fbe0075
:100ae0008a1f78000004be00c900900069009000d1
:100af000808f5000050039000900780018020700b7
:100b00008080eb000000e00016003500084578000a
:100b10004900900008587800c00498001900780037
:100b200000b8a30004003a0000a8a30007003200a8
:100b3000ea4f540005003a0009007800040107005c
:100b40008080eb000000e00006003a0000c02000ba
:100b5000190060000200320049009000e004980093
:100b60008a80fb00010078004f0578004f04be002a
:100b700000000600889fbe00000478000100780095
:100b800082047800880178000901780011002000b3
:100b900072010700890f5000010032000004eb00d1
:100ba000080078004f04be00000006000000fa00b4
:100bb000e88157004fb99700a1032100a05b2000f6
:100bc000020007000080fa00000006006200fa0040
:100bd000889fbe008a1f7800000578008104780095
:100be000020478008300780080f92f000f00400095
:100bf000de0207009a979f00a9979f000000eb0074
:100c0000b09f9f001885fb008a04fb000a05ea00dc
:100c10004f55de0050022000808f54000d0032003e
:100c2000e10f55000b003a000a01780088007800b7
:100c30002f9097009f91970003000100a0979f00bd
:100c40000000e0008e0032003f9897000000e800ae
:100c5000b09f9f000a04440050022000808f54007f
:100c6000040032000900e000e6ff3a003f989700d8
:100c7000840037000000eb00909f9f00809f9f0042
:100c8000f0979f00e0979f00d0979f00c0979f002c
:100c90000700370021132100010050000000400030
:100ca0006112210061007800df9897000100700058
:100cb000d09f9f00880478000904780038457800a8
:100cc0008a00fb0020132100890107000000e000da
:100cd000f0ff3a00a1c2b300814f55000e003a0068
:100ce000cf8897000180e900c08f9f001000780036
:100cf000c09f9f000000e00005003d000000ea00ea
:100d0000c09f9f005f9897000020a000d09f9f0089
:100d10000904e8000f003700c09f9f000000eb00af
:100d200005003700f2ff2700820f5000020032005a
:100d30006a01b90002804000090478008804780044
:100d4000b900fb000103b100e98f5000f5ff360048
:100d5000c09f9f00e0c2b300984f10000200320015
:100d60000080eb0019003700a0c2b300d84f10007c
:100d700007003a00cf8897000180e900c08f9f00ec
:100d800010007800a09f9f000804e80010003700c2
:100d90000000eb00a09f9f0088007800050037004e
:100da000f3ff2700830f5000020032006a02b900ef
:100db0000400410001047800880078003101fb0044
:100dc0000203b100e90f5100f5ff3600a09f9f001c
:100dd000984478008900fb00e011210044010700dd
:100de0000000e000020032000804e80001003700c3
:100df0008044eb00c97f9f0080c6b30080cf5400c1
:100e000004003a0098cf14000a003a0066405000ef
:100e100006003700c0c6b30080cf540005003a007a
:100e200098cf140003003a0065404000c07f9f0047
:100e30000804e8001801fb00e3fb2f008f8141004c
:100e400081f92f008f804000a0f92f000f00400093
:100e5000100007000000e00009003a00e1fb2f004d
:100e60008f804000a0f92f000f0040008301070091
:100e70000000e000020035000804e80061ff3700d0
:100e80000080eb004f0578004f04be000080fa00a0
:100e900000000600889fbe008a1f780000047800ca
:100ea00030c5b300804f51000800320030c7b30096
:100eb000804f51000500320051c2b300780090000d
:100ec000814f510017003a00140037001180e900eb
:100ed00080087800100578006a049800d80c90000b
:100ee0000900e00004003d000a0078000c01070042
:100ef0008004780007003700090178008000eb00cb
:100f00000a007800e90007000000e000010032005c
:100f10008a045000190c980009003700827178008b
:100f200005003700808141000204e00001003a0022
:100f300001417800824978000000e80070049800c0
:100f40000000eb004f0578004f04be0000000600d3
:100f5000889fbe008a1f7800000478000800e00027
:100f60000d003a0088082100700544008004eb0061
:100f7000580078000000e00004003200f4ff070091
:100f80000000e00001003d008084eb008a0f540067
:100f9000f7ff3a002500370000002200180060002b
:100fa0008004eb0021003200a80490000f003700fd
:100fb00009015100384090000000fb0089007800d2
:100fc00037fe07000000e00007003c00280090000a
:100fd0004004980060049800500c98001890a000fd
:100fe0008084eb00110037008084440048019000a9
:100ff000828f5400eeff39002800900040049800d2
:101000009800780002c020000281600001003a00d0
:101010003800900001e8a30002003200600498004c
:1010200001003700500c98008004eb0009007800a4
:101030004f0578004f04be0000000600889fbe00e8
:101040008a9fbe0080047800010478002c003700dd
:10105000c800900068009000808f500004003900a4
:1010600008007800be0007000000e00037003500ef
:10107000004020001800600009003200a10020009c
:1010800009007800ac000700800578000b00e00044
:1010900003003200618514000a8545000400370012
:1010a000090078009e000700000578008005eb002d
:1010b00048009000e8009000808050008a8f500027
:1010c00002003100010578008005eb000a0178007c
:1010d000890078007f000700480090000a00400067
:1010e000400498000b00e000040032000800780083
:1010f00097ff07000000e00014003a008a844400d3
:101100001904e000d2ff3a000080200018006000bf
:1011100006003200080078008dff0700800078008c
:101120000080eb000100e00009003a0001c020004f
:10113000988060000000eb0005003200480090003d
:10114000600498000000eb00010037000080eb0015
:101150004f05be004f04be0000000600889fbe0081
:101160008a9fbe008c9fbe008e1f7800000678000c
:101170000104780002007800830478000881b90037
:10118000020778000200e000420032000800e000a0
:101190004100320082057800c9009000690090008b
:1011a000808f500004003900090078006c000700af
:1011b0000000e00029003500004020001900600018
:1011c0000a0032000b017800a10020000c0078001a
:1011d00036000700800678000d00e00006003200af
:1011e000610516000a854600040037000b057800eb
:1011f0008006eb00010037000b05780049009000e5
:10120000e9009000808050008a8f50000200310079
:10121000010578008006eb000a0178008c00780058
:101220002c0007008a855500490090000a00400004
:10123000c00498000d00e0000400320009007800ae
:1012400043ff07000000e00004003a000b00e0004c
:10125000020032000a064600cfff3700008020005f
:1012600019006000020032000900780038ff070012
:1012700000c0200019006000020032004900900008
:10128000e00498008b055700050009008885d80008
:10129000010037000000eb004f0778004f06be004a
:1012a0004f05be004f04be000000060003003700db
:1012b000b0cf1000050032000201e9008001780083
:1012c0000200e000faff3a00000005000300780089
:1012d000000006008001780002003700b159780054
:1012e0000201e9000200e000fcff3a0000000600f5
:1012f000020037000304e00006003200000178001d
:1013000002007800b041780081cf5100f9ff3a0027
:10131000010037000001eb00020078000000060029
:1013200080007800010178003104e000fdff3a0000
:1013300000005100000006000001eb0000027800f0
:10134000b041780081cf510001003a0004017800db
:101350000304e000f9ff3a000200780000000600f4
:10136000889fbe008a1f780000047800c8009000a3
:10137000680190000000eb00828f50003c003900b3
:10138000180078002200290002016000e20f5100dd
:1013900007003200012024000000e00001003d00b1
:1013a00001202000008c70000080eb00300037002e
:1013b0000200260002006000820f500009003a007f
:1013c00038009000808f5000060039000800780037
:1013d000dffe0700800078000080eb000100e000e5
:1013e00023003a001805780000c0200000006500c6
:1013f00018003a00a8049000600220000800400095
:10140000808f540013003a0000202000ae01070036
:10141000200498000000e00005003a00290498002c
:10142000490498008904e80039049800080037004e
:101430000a60a0000a0c78004004980001202000f7
:101440008080400031049800400c9800500c9800b7
:10145000ca0007002800900050049800380090004f
:101460006004980000002600180c70000000eb00db
:101470004f0578004f04be00000006000400fa008b
:10148000889fbe008a9fbe008c1f780000047800f1
:1014900001067800f80d90007800900080855500d6
:1014a0000808900080855500180890008085550038
:1014b00028089000808555003808900080855500e8
:1014c00048089000808555000002220090bf9f00d0
:1014d00000032300a0bf9f00081090000028a30075
:1014e00015003a000b00e000130034000b057800f3
:1014f0008a047800e20f5500010036002900200020
:10150000c801900009017800ee8057005800900053
:1015100003000100500498000000e0008c0032003d
:101520006808900009004000600c9800090555000b
:101530004240a900eeff3c00780190000200e0006c
:101540000c003400c80190008c0078005800900016
:1015500003000100500498008080eb000000e000d0
:101560007c003200e8089000780090000080400085
:10157000600c9800880c90000900e0001100340015
:1015800009057800e28f5400010036002a0020008f
:10159000c80190000a017800ec80570058009000c4
:1015a00003000100500498000000e00068003200d1
:1015b000680890000a004000600c98008a8454007b
:1015c000edff3700180990000200e0000c00340025
:1015d000c8019000e800900058009000030001004e
:1015e000500498008080eb000000e00059003200b9
:1015f000e80890001808900000804000600c9800f7
:10160000a80c90000900e0001100340009057800e2
:10161000e28f5400010036002a002000c80190002b
:101620000a017800ec805700580090000300010088
:10163000500498000000e000450032006808900067
:101640000a004000600c98008a845400edff3700c7
:10165000380990000200e0000e003400e80090001d
:101660001808900080804000c80190005800900049
:1016700003000100500498008080eb000000e000af
:1016800034003200e80890003808900000804000e4
:10169000600c9800c80c90000900e00011003400b4
:1016a00009057800e28f5400010036002a0020006e
:1016b000c80190000a017800ec80570058009000a3
:1016c00003000100500498000000e00020003200f8
:1016d000680890000a004000600c98008a8454005a
:1016e000edff3700081090008000eb000028a300f9
:1016f000180032000b00e000160034008b04780064
:1017000009057800e28f5400010036002a0020000d
:10171000c80190000a017800ee8057005800900040
:1017200003000100500498000000e00008003200af
:10173000680890000a004000600c98008a845400f9
:101740004240a900eeff3c008000eb0001003700a2
:101750008080eb00010078004f0678004f05be0046
:101760004f04be000080fa00000006000108780067
:101770000000060020c6200062003700881f7800a5
:10178000c81321001804e00003003a00f9ff070025
:1017900020c0b300004c78004f0478000000060021
:1017a000889fbe000004780008007800e8fd07006c
:1017b0008004780066800a00180000000000e00045
:1017c00002003200280090005a0007000000eb00e1
:1017d00020049800384090000004e0000500350027
:1017e0000000fb0025fc07000000e00001003200c3
:1017f0008084eb00181090000000e0000800320028
:1018000069fc07000000e000010032008084eb006a
:1018100018109000470007000000eb00101498001b
:101820000008200018006000150032000001eb00e5
:101830006000b800a30821000202d00063027a0011
:10184000880f520005003a000000400081804800e7
:10185000008041000008eb000600370061004000f6
:10186000e08048000201e800e80f5000e08f5800d7
:10187000f0ff3a00080078002e0007000e00370045
:10188000000c780000c0eb0030449800600220009b
:10189000080040002004980040049800500498007c
:1018a000400c980060049800500c98007004980058
:1018b00076004400000c9800090078004f04be0038
:1018c00000000600881f78000004eb006140b800ab
:1018d000e2ff2f00f3ff2f00b5000700820921006f
:1018e000620078000000e00001003200acff070059
:1018f0000804e800e80f5400f4ff3a004f047800b1
:1019000000000600010020000100e0000800320095
:10191000010080000100e000050032008100e900c4
:10192000010088008100d0000200800000b1780032
:10193000000006000000e0002f003200c001780027
:10194000e38f51002c0036000308a3002a003a0060
:10195000d18980000100e00002003200810f5000b8
:101960000400310011009800d0898800160037006b
:1019700082007800110190000200e00002003200b5
:10198000800f5100faff3900110278008482400074
:10199000850f500018003900808f520003003a0074
:1019a0008308420001007800070037000200e000d1
:1019b0000300320083014000830f51000e00390004
:1019c0001200980090009800900090000100e00044
:1019d0000900320010014000828f500006003a00da
:1019e000821321000009eb0010017800110841006a
:1019f000910090001100980000000600889fbe0032
:101a000000047800c18980000100e000020032007b
:101a1000010078000d003700d1898000a01321005b
:101a200004003700910f5400250036000180e800c3
:101a3000910090000100e000faff3a00100037002a
:101a4000920f54001e0036000280e800100178005a
:101a50000200e000faff3a0011017800d18980000d
:101a6000a013210004003700910f54001400360029
:101a70000180e80091009000828f5000faff3a0048
:101a8000f9898000888f54000100310088047800b3
:101a900009007800360007000000e00004003a006a
:101aa000888f5400050032008904d100f5ff37000b
:101ab000091878009fff0700d2ff37000000eb00f5
:101ac0004f04be0000000600881f78006304400039
:101ad0000800a1008000eb00800f540021003600b8
:101ae000e30f540001003e00480020000800780089
:101af000c2ff07008000eb000000e0001900320088
:101b0000900078009101780064815100880f5100a5
:101b1000030031001101900002087800070037002f
:101b2000088140000208780091019000130198009c
:101b3000100178001109140088087800100178005d
:101b40000000eb000200e00004003200920190006f
:101b50000300e000010032000280e800c089880034
:101b60008180e800010078004f0478000000060042
:101b7000800078000000eb000100e0000500340068
:101b80000100780091fb0700e10f400001003a00de
:101b90000000eb000000060000c0da0000000600b4
:101ba00000c0da000000060000c0da0000000600f5
:101bb000020ab900001bb9000200b800810042000f
:081bc000810043000000060053
:020000040000fa
:101bc8001b5b0000324a0000001b00005b30000075
:101bd8003b300000660000001b5b00003f32000045
:101be800356c0000002d00002d2d00002d2d00006b
:101bf8002d2d00002d2d00002d2d00002d2d000075
:101c08002d2d00002d2d00002d2d00002d2d000064
:101c18002d2d00002d2d00002d2d00002d2d000054
:101c28002d2d00002d2d00002d2d00002d2d000044
:101c38002d2d00002d2d00002d2d00002d2d000034
:101c48002d2d00002d2d00002d2d00002d2d000024
:101c58002d2d00002d2d00002d2d00002d2d000014
:101c68002d2d00002d2d00002d0d0000006400001a
:101c7800735000004943000033330000434800001c
:101c88002043000075720000696f0000736900004e
:101c98007479000020440000656d00006f0d00009d
:101ca80000530000312000002d200000636f000069
:101cb8006e740000726f00006c730000204c00000e
:101cc80045440000312c00002063000068610000da
:101cd8006e670000657300002061000063740000f7
:101ce800697600006520000052470000422000008d
:101cf800636f00006c6f0000720d0000005300005d
:101d0800322000002d200000636f00006e74000078
:101d1800726f00006c730000204c00004544000006
:101d2800322c000020630000686100006e6700002c
:101d3800657300002061000063740000697600008c
:101d4800652000005247000042200000636f000039
:101d58006c6f0000720d000000530000332000007b
:101d68002d200000656e0000616200006c650000b7
:101d78002f64000069730000616200006c65000058
:101d880020740000726100006e7300006965000035
:101d98006e740000206c00006f6100006420000079
:101da80074650000737400000d000000506f00009f
:101db800746500006e740000696f00006d650000b6
:101dc80074650000722000002d200000636f000081
:101dd8006e740000726f00006c73000020610000d8
:101de8006374000069760000652000005247000017
:101df80042200000636f00006c6f0000722000003a
:101e0800696e0000746500006e730000697400005c
:0c1e1800790d0000000d0000000000002b
:020000040000fa
:101e24000200fa00000f78001e007800e20f500054
:101e34000e003200e20f500003003e00e10f50009c
:101e44000c0032000d003700e30f50000300320095
:101e5400e40f5000030032000800370097e3a800a5
:101e640006003700cde3a8000400370061e3a800b2
:101e7400020037002be3a800000000000080fa00f5
:101e8400000006000200fa00000f78001e0078002f
:101e9400e20f50000e003200e20f500003003e003b
:101ea400e10f50000c0032000d003700e30f50002a
:101eb40003003200e40f5000030032000800370032
:101ec40097e3a90006003700cde3a900040037001a
:101ed40061e3a900020037002be3a9000000000021
:101ee4000080fa00000006000400fa00000f7800e9
:101ef400110798001e007800e20f50001000320015
:101f0400e20f500003003e00e10f50000f003200ca
:101f140011003700e30f500003003200e40f5000bb
:101f2400040032000c0037009e009000d11d880090
:101f3400090037009e009000811f880006003700ca
:101f44009e009000211c8800030037009e00900032
:101f5400711a8800000000000080fa0000000600ea
:101f64000400fa00000f7800110798001e007800a2
:101f7400e20f500010003200e20f500003003e0058
:101f8400e10f50000f00320011003700e30f500042
:101f940003003200e40f5000040032000c0037004c
:101fa4009e009000f11d8800090037009e009000fb
:101fb400a11f8800060037009e009000411c880085
:101fc400030037009e009000911a88000000000072
:101fd4000080fa00000006000400fa00000f7800f8
:101fe400110798001e007800e20f50001000320024
:101ff400e20f500003003e00e10f50000f003200da
:1020040011003700e30f500003003200e40f5000ca
:10201400040032000c0037009e009000c11d8800af
:10202400090037009e009000711f880006003700e9
:102034009e009000111c8800030037009e00900051
:10204400611a8800000000000080fa000000060009
:102054000600fa00200798006000b800008fbe0058
:1020640001003700000000001e00be0061004000b7
:10207400e0804800008fbe002e0090006101b9008e
:102084001e00be00800f5100818f5900f5ff3a00f9
:10209400000000000080fa00000006000000fa00c2
:1020a4000cd0bf00614060000004e00013003a005f
:1020b40080322200e6ff0700b073800061006000f8
:1020c40000f0a7000000ea000000e9004f00de0075
:1020d400004078000080fb0061006000b173800064
:1020e4000100a10001007000b07388000cd0bf0093
:1020f4000004a0000cf0b700130037008032220067
:10210400d3ff0700b07380006200600000f0a700f6
:102114000000ea000000e9004f00de000040780003
:102124000080fb006100600000004000b17380008b
:102134000110a10001007000b07388000cd0bf0032
:102144000004a1000cf0b7000080fa0000000600b3
:102154000000fa000cd0bf000014a0000cf0b7007f
:102164000080fa00000006000200fa00000f780068
:102174001e0078000000e000070035001002200077
:102184009e007800808f500003003c005aeea800a7
:102194005aaea90023cea900100220009e007800a8
:1021a400808f500007003400200420009e00780037
:1021b400808f500003003c005aeea9005aaea800dc
:1021c40023cea900200420009e007800808f5000b8
:1021d40007003400400620009e007800808f5000e5
:1021e40003003c005aeea8005aaea90023cea90071
:1021f4000080fa00000006000800fa00000f7800d2
:102204001107980022079800330798001e007800f1
:10221400e20f50001a003200e20f500003003e00ab
:10222400e10f50000600320045003700e30f500074
:1022340023003200e40f5000310032004000370028
:102244001e0078000fff07002de3a9002dc3a9008d
:102254002da3a9009e0090001e00780022ff070015
:10226400be0090001e0078003dff0700ae00900005
:102274001e00780058ff070010c0b300310037007b
:102284001e007800fffe070063e3a90063c3a900f2
:1022940063a3a9009e0090001e00780012ff0700af
:1022a400be0090001e0078002dff0700ae009000d5
:1022b4001e00780048ff070010c0b300210037005b
:1022c4001e007800effe070099e3a90099c3a90056
:1022d40099a3a9009e0090001e00780002ff070049
:1022e400be0090001e0078001dff0700ae009000a5
:1022f4001e00780038ff070010c0b300110037003b
:102304001e007800dffe0700cfe3a900cfc3a900b9
:10231400cfa3a9009e0090001e007800f2fe0700e3
:10232400be0090001e0078000dff0700ae00900074
:102334001e00780028ff070010c0b300010037001a
:102344000040eb000080fa00000006000200fa00e2
:10235400000f78001e007800e20f50000e003200db
:10236400e20f500003003e00e10f5000060032006f
:1023740015003700e30f50000b003200e40f50004b
:102384000d003200100037002100200043210a0014
:102394002a0300000c0037002100200043210a001a
:1023a40060030000080037002100200043210a00d8
:1023b40096030000040037002100200043210a0096
:1023c400cc030000000000000080fa0000000600ba
:1023d4000200fa00000f78001e0078000040780028
:1023e400634060000000780054200a0000030000ed
:1023f4000080fa00000006000400fa003300070021
:102404000000eb00000f78000000eb0010079800bc
:10241400711a8000010f7800211c800011079800b8
:102424009e009000711a88009e007800211c88008c
:10243400d11d8000010f7800811f800011079800d2
:102444009e009000d11d88009e007800811f8800a6
:10245400c11d8000010f7800711f800011079800d2
:102464009e009000c11d88009e007800711f8800a6
:10247400111c8000010f7800611a80001107980078
:102484009e009000111c88009e007800611a88004c
:102494002200070044a00a000c1000000004a2005f
:1024a40061406000e1406000400020000008dd0061
:1024b400c1002100914078000144a10000c07000d7
:1024c4000cf0b7000080fa00000006000800fa00d3
:1024d40010002000000f7800200020001007980052
:1024e40030002000200798004000200030079800aa
:1024f4001e00780063fe07001e00900061fe0700c6
:102504002e0090005ffe07003e0090005dfe070075
:102514000cd0a9000080fa00000006000800fa00b0
:1025240010002000000f7800200020001007980001
:102534003000200020079800400020003007980059
:102544001e00780036fe07001e00900034fe0700cf
:102554002e00900032fe07003e00900030fe07007f
:102564000cd0a8000080fa00000006000000fa0069
:1025740033a00a00760e00000004a200614060004f
:102584000080fb00610060004300dd00b173800047
:102594000130a10001007000b07388000080fa00cf
:1025a400000006000000fa000cd0bf000044b20096
:1025b4000004e0001b00320000808000f00f500097
:1025c40015003a000030ef00108080000000e800a1
:1025d400108088000cd0bf00704060000004e00050
:1025e40004003a00308080000000e8003080880059
:1025f400070037000cd0bf00704060000004e0000a
:1026040003003200308080000000e9003080880040
:102614000600070003003700008080000000e80087
:10262400008088000080fa00000006000000fa0024
:102634001180800020808000808f500002003900cb
:102644000230ef00a1ff07000080fa00000006003e
:102654000000fa002180800050808000808f5000ac
:10266400350032005180800030808000808f50001f
:10267400170036000cd0bf00704060000004e0007a
:10268400010032005cff0700518080004080800020
:1026940000805000208088003180800020808000ed
:1026a400270007000004a2000004e000220032001a
:1026b4000cd0bf000044b2000004e0001e003a0049
:1026c40096ff070030808000408088001a003700a1
:1026d4005180800030808000808f500016003100cf
:1026e4000cd0bf00704060000004e00001003a001c
:1026f40041ff07004180800050808000008050002e
:102704002080880031808000208080000c00070039
:102714000004a2000004e000070032000cd0bf0057
:102724000044b2000004e00003003a007bff07000d
:1027340030808000408088000080fa00000006009d
:102744000400fa00000f7800110798001e017800b9
:10275400ea0041001e009000808f500007003900fd
:102764001e017800ea0051001e009000808f500086
:1027740002003e0010c0b300060037001e007800bf
:102784000000e00002003a0010c0b300010037006e
:102794000040eb000080fa00000006000200fa008e
:1027a400000f78001e007800e20f50000d00320088
:1027b400e30f500014003200e10f50001b003a00f8
:1027c400a1738000000820000080600000f0a700d2
:1027d4000000ea000000e9004f00de00004078003d
:1027e40013003700a17380000010200000806000f7
:1027f40000f0a7000000ea000000e9004f00de003e
:10280400004078000a003700a173800000202000f7
:102814000080600000f0a7000000ea000000e9006a
:102824004f00de0000407800010037000040eb005c
:102834000080fa00000006000200fa00000f780091
:102844001e007800e20f500006003200e30f500033
:1028540006003200e10f500007003a0072eea800b3
:1028640006003700730ea80004003700732ea8007a
:102874000000000001003700000000000080fa00a2
:10288400000006000400fa00100798000040eb0066
:10289400004f7800110037001e80fb006a00b90069
:1028a40080007800a009210000804000900078009a
:1028b4001e009000808f500007003a001e80fb002d
:1028c4006a00b90080007800a0092100008040005f
:1028d4008000eb00010878001e4fe8001e407800dd
:1028e400e94f5000ecff36000080fa0000000600bb
:1028f4000800fa0010079800220798003307980090
:102904000dd0bf000004a2000004e0000200320069
:102914000040eb00280037000040eb00004f780037
:10292400210037001e80fb006a00b9008000780097
:10293400a009210000804000100078000000e000a1
:1029440018003a001e80fb006a00b900800078007d
:10295400a0092100008040009e009000010878003a
:102964001e80fb006a00b90080007800c0092100c5
:10297400008040002e019000be0190000288be003d
:102984001e80fb006a00b90080007800000a210064
:10299400008140006000b8000089be0010c0b30090
:1029a400050037001e4fe8001e407800e94f500034
:1029b400dcff36000040eb000080fa000000060057
:1029c4000200fa00000f78001e0078000000e0000a
:1029d40003003200e10f50001c0032001f003700da
:1029e40001e1a9002028a900420620008000eb0094
:1029f400a009210026f807000028a90041002000b2
:102a040064210a00400800000421ef00703e200009
:102a1400400888003100200098210a0000010000cd
:102a24000021a8000041a9001100200054210a003f
:102a34000001000001e1a8002028a80010c0b30094
:102a44000df0b70010c0b300050037002028a9001e
:102a54000d70ef0010c0b300010037000040eb0020
:102a64000080fa00000006000400fa001007980035
:102a74001e0090000000e0000b003a001e009000d1
:102a840010000700d1cc2c000100b8004308de0080
:102a9400004f780040c6b3009e40780080cf5000bd
:102aa40003003e000400370000c0eb0003003700c1
:102ab40040c6b300004f78001e4078000080fa0042
:102ac400000006000200fa00000f78001e007800e3
:102ad400030007004200de000080fa000000060048
:102ae4000600fa00200798002e0090000000400025
:102af40080007800c0c02000008f40004158800052
:102b040000e02f00808060002e0090000100700023
:102b140040588800090ba8002e009000ef0f5000c9
:102b24000b003e002e009000110020000008dd0084
:102b34001007980000000000815980001e009000da
:102b4400008060000000e000fbff32000b00370053
:102b54002e00900070005000110020000008dd00dd
:102b64001007980000000000915980001e0090009a
:102b7400008060000000e000fbff32001e007800cf
:102b8400100078000080fa00000006000a00fa0035
:102b940030079800410798006000b800008fbe001d
:102ba4000000eb0020079800080037003e0090006a
:102bb400cbff07008000eb001e0f40005e9748002b
:102bc4002e0090000000e80020079800ae0090005e
:102bd4004e009000808f5000f4ff39002e009000ca
:102be4000000e0000c0032002e0090000000d10034
:102bf4008000eb003e024000ae8248002e009000b0
:102c04008000eb000001be000400be0090f7070046
:102c140000007800010037000000eb000080fa009b
:102c2400000006000200fa00000f78001e00780081
:102c34000000e00003003a00000ea80010c0b3003a
:102c4400010037000040eb000080fa00000006009d
:102c54000200fa00000f78001e0078000000e00077
:102c640016003a00002bef000006200010588800e0
:102c7400042bef000003200030588800082bef00dd
:102c840000082000505888000008200000608800d8
:102c940000f020001060880001eba8000000000094
:102ca4000160800000002800008060000000e00057
:102cb400fbff320010c0b300010037000040eb00fe
:102cc4000080fa00000006000c00fa009c020700d5
:102cd4000c70ef000000eb00000f780010002000e3
:102ce400d5fe07000000eb0035ff07000000eb00f5
:102cf400d7ff07000000eb00caff070040002000d8
:102d040010079800300020002007980020002000c1
:102d140030079800100020004007980010002000a1
:102d2400500798005e009000a9fd070003ff2f00e4
:102d340042ff2b00f1fe2f001e0090002efd070025
:102d44001e00900081fd070003ff2f0082ff270073
:102d540041ff2b002e00900027fd07002e0090005d
:102d64007afd070003ff2f00c2ff230081ff270025
:102d74003e00900020fd07003e00900073fd070018
:102d840003ff2f000001eb0081ff27004e0090009d
:102d940019fd07004e0090006cfd07004e009000e6
:102da4001ffc07003e0090001dfc07002e00900051
:102db4001bfc07001e00900019fc0700c3fd070060
:102dc4000000eb00fefe07001200200003002000bc
:102dd400402d2100c6fe0700120020000300200041
:102de400a0322100c2fe070040de2800801f7800c8
:102df4006df707008f87e90090de2800801f7800b8
:102e040069f707008f87e90000df2800801f78003a
:102e140065f707008f87e90070df280023f70700b4
:102e2400b0e3280021f7070070df28001ff7070030
:102e340050e528001df7070030e828001bf70700bd
:102e440010eb280019f70700a0ed280017f707007a
:102e5400f0f0280015f70700c00021008ffc0700e0
:102e6400100020004dfe07000004e00020003200a6
:102e7400801a260076fc07001000200047fe070099
:102e840061406000e1406000200020000008dd0097
:102e9400c1002100914078000124a10000c070000d
:102ea4000cf0b7000cd0bf00644060000080fb0051
:102eb4000000ea004f00de0000407800e1406000be
:102ec400300020000008dd00c1002100914078009e
:102ed4000134a10000c070000cf0b7000cd0bf009a
:102ee400684060000004e00001003a000c50a900b2
:102ef4000000eb00dcfe07000080fb00000f780000
:102f04001e0078006700b900000078005080880037
:102f14001e00780094fc0700cfff37000000fa0081
:102f24000023ef000223ef000423ef000623ef0049
:102f3400f0ff20004018880040052d00501888003c
:102f44000c23ef000e23ef001023ef001223ef00f9
:102f54001423ef001623ef001823ef001a23ef00c9
:102f64001c23ef001e23ef002023ef002223ef0099
:102f74002423ef002623ef002823ef0000002c0079
:102f8400c01c880000002c00701e880000002c006b
:102f9400101b880000002c00601988009a23ef00a1
:102fa400d023ef009c23ef00d223ef00c0002000c9
:102fb400f01c8800c0002000a01e8800c000200073
:102fc400401b8800c000200090198800a023ef0057
:102fd400d623ef00a223ef00d823ef00a423ef00b1
:102fe400da23ef00a623ef00dc23ef00a823ef0091
:102ff400de23ef00aa23ef00e023ef00ac23ef0071
:10300400e223ef00ae23ef00e423ef00b023ef0050
:10301400e623ef00b223ef00e823ef00b423ef0030
:10302400ea23ef00b623ef00ec23ef00b823ef0010
:10303400ee23ef00ba23ef00f023ef00bc23ef00f0
:10304400f223ef0000012000f01d880000012000a1
:10305400401c880000012000901a88000001200014
:10306400a01f8800c023ef00f623ef00c223ef0067
:10307400f823ef00c423ef00fa23ef00c623ef0088
:10308400fc23ef00c823ef00fe23ef00800028009c
:10309400b01c880080002800601e88008000280082
:1030a400001b880080002800501988000080fa0066
:1030b400000006000000fa000080fa00000006008c
:1030c4000000fa0040408000680060000000e0005a
:1030d40002003200f7ff07000868a9000080fa0028
:1030e400000006000000fa000080fa00000006005c
:1030f4000000fa0040408000700060000000e00022
:1031040002003200f7ff07000888a9000080fa00d7
:10311400000006000000fa000080fa00000006002b
:103124000000fa004140800000022000008060009e
:103134000000e00002003200f6ff070008a8a90022
:103144000080fa00000006000000fa000080fa0087
:10315400000006000000fa00414080000004200046
:10316400008060000000e00002003200f6ff07006b
:1031740008c8a9000080fa00000006000000fa0058
:103184000080fa00000006000000fa00a140800060
:1031940000202000008060000000e00002003200f7
:1031a400f6ff07001528a9000080fa0000000600b9
:1031b4000000fa000080fa00000006000000fa0097
:1031c400a140800000402000008060000000e0007a
:1031d40002003200f6ff07001548a9000080fa003b
:1031e400000006000000fa000080fa00000006005b
:1031f4000000fa00a14080000080200000806000f0
:103204000000e00002003200f6ff07001568a90084
:103214000080fa00000006000000fa000080fa00b6
:10322400000006000000fa00a14080000000210018
:10323400008060000000e00002003200f6ff07009a
:103244001588a9000080fa00000006000000fa00ba
:103254000080fa00000006000000fa00a14080008f
:1032640000002200008060000000e0000200320044
:10327400f6ff070015a8a9000080fa000000060068
:103284000000fa000080fa00000006000000fa00c6
:10329400a140800000002400008060000000e000e5
:1032a40002003200f6ff070015c8a9000080fa00ea
:1032b400000006000000fa00007c80000080fa0094
:1032c400000006000200fa00faff0700000f780071
:1032d4001e007800240007000004e0000200320011
:1032e40000002800710007001e0078002a00070073
:1032f4000004e00002003200000024006b0007001c
:103304001e007800320007000004e00002003200d2
:1033140000202000650007001e0078003a00070026
:103324000004e00002003200000820005f000700f3
:103334001e007800420007000004e0000200320092
:1033440000042000590007001e0078004a0007000e
:103354000004e000020032000001200053000700d6
:103364000080fa00000006000400fa00100798002c
:103374000040eb00004f78001e0090000000e000c9
:1033840002003d0010c0b300004f78001e407800da
:103394000080fa00000006000400fa0010079800fc
:1033a4000040eb00004f78009e00900000002400d5
:1033b400008060000000e0000200320010c0b30092
:1033c400004f78001e4078000080fa0000000600dc
:1033d4000400fa00100798000040eb00004f78004a
:1033e4009e00900000202000008060000000e000ab
:1033f4000200320010c0b300004f78001e40780075
:103404000080fa00000006000400fa00100798008b
:103414000040eb00004f78009e0090000008200060
:10342400008060000000e0000200320010c0b30021
:10343400004f78001e4078000080fa00000006006b
:103444000400fa00100798000040eb00004f7800d9
:103454009e00900000042000008060000000e00056
:103464000200320010c0b300004f78001e40780004
:103474000080fa00000006000400fa00100798001b
:103484000040eb00004f78001e00900070006000c8
:103494000000e0000200320010c0b300004f7800ca
:1034a4001e4078000080fa00000006000200fa00c6
:1034b400000f78009e80ea00007c8000008060009d
:1034c400007c88000080fa00000006000000fa007a
:0c34d400802fef000080fa0000000600ce
:020000040000fa
:1034e000fe1000002000000080000000101000000e
:1034f0000200000082000000ffff00009a100000a0
:1035000064000000800000000010000010000000b7
:1035100080000000121000008800000082000000ff
:103520000100000000381000391038001038100079
:1035300038103800102810000000000000000000c3
:10354000000000000000000000000000000000007b
:10355000000000000002080001016000106110007e
:10356000601060001060100060105000100000003b
:10357000000000000000000000000000000000004b
:10358000000000000000000000000200080202002d
:10359000881089001088100088108800108810009a
:1035a0007810000000000000000000000000000093
:1035b000000000000000000000000000000000000b
:1035c00012103a001062100000000000000000001d
:1035d00000000000000000001e1100001a000000a2
:1035e00082000000686a6c00747a4c0000000100e0
:1035f000000200000400080000100000000020008d
:103600002b2d2300300000003c11000002000000c0
:10361000800000003e110000020000008200000057
:1036200004000000381100000400000080000000c9
:1036300040110000020000008200000001000000b4
:1036400042110000020000008000000000000000a5
:020000040000fa
:103650000000fa00062eef00222eef003e2eef00b3
:103660005a2eef00762eef00f00120001070880037
:10367000d0ff2c00f070880030ff2c00d071880043
:103680000080eb00b07288000080eb00907388002f
:103690000c2eef00282eef00442eef00602eef00de
:1036a0007c2eef000a2eef00262eef00422eef00b8
:1036b0005e2eef007a2eef00082eef00242eef0092
:1036c000402eef005c2eef00782eef00f00120007e
:1036d00000708800d0082000e0708800f00820000a
:1036e000c071880000402000a07288001f6ea900f1
:1036f0001f4ea9003a8ea9003b4ea900726ea90088
:103700000080fa00000006000200fa00000f7800b6
:1037100021028000200f2000008060001e00700049
:10372000200288000080fa00000006000000fa0075
:10373000c3e8a80000000000000000000080fa00bc
:10374000000006000000fa00c1ff07001b00070090
:1037500057000700f5ff070000022000eaff0700fe
:10376000effd0700720ea900722ea9001fcea9005e
:1037700072eea80056eea90056aea900572ea90079
:1037800023cea900760ea900762ea9005aeea90034
:103790005aaea9005b2ea900004180000010a000d5
:1037a00000418800014280000007200001007000f5
:1037b000004288000080fa00000006000000fa00c5
:1037c00010002300307c880060092000407c8800c5
:1037d0008c2fef0010042000507c88001010200077
:1037e000707c880060092000807c88001004200024
:1037f000907c88009a2fef00b82fef00ba2fef00cf
:10380000002def00a42fef00a62fef00a82fef0050
:10381000aa2fef00ae2fef00b02fef00b22fef0076
:103820000001eb00600420007105200043f8200037
:103830008049780081497800824978000080fa0048
:10384000000006000000fa00dcff07000080fa001c
:10385000000006000000fa00007c80000080fa00f2
:10386000000006000000fa0097fe07000080fa0042
:10387000000006000000fa0015ff07000080fa00b3
:1038800000000600000f78009e007800818088000c
:10389000ffff37000000fa00e00f210080077800ea
:1038a00060112100000188000080fa00000006007d
:0c38b0000000fa000080fa000000060092
:020000040000fa
:020000040002f8
:04be0000ffff000040
:020000040000fa
:020000040002f8
:04be2000ffffff0021
:020000040000fa
:020000040002f8
:04be3000ffffff0011
:020000040000fa
:020000040002f8
:04be3800bfffff0049
:020000040000fa
:020000040002f8
:04be40007453ff0038
:020000040000fa
:020000040002f8
:04be5000dfffff0011
:020000040000fa
:020000040002f8
:04be58000000ff00e7
:020000040000fa
:020000040002f8
:04be60000000ff00df
:020000040000fa
:020000040002f8
:04be68000000ff00d7
:020000040000fa
:020000040002f8
:04be70000000ff00cf
:020000040000fa
:020000040002f8
:04be7800ffffff00c9
:020000040000fa
:020000040002f8
:04be8000ffffff00c1
:020000040000fa
:020000040002f8
:04be8800ffffff00b9
:020000040000fa
:020000040002f8
:04beb000ffffff0091
:020000040000fa
:020000040002f8
:04bec000ffffff0081
:020000040000fa
:020000040002f8
:04bed000ffffff0071
:020000040000fa
:020000040002f8
:04bee000ffffff0061
:020000040000fa
:020000040002f8
:04bef000ffffff0051
:00000001FF
