:020000040000fa
:080000000002040000000000f2
:020000040000fa
:0400080050030000a1
:020000040000fa
:04000c00620300008b
:020000040000fa
:040010007203000077
:020000040000fa
:04001400580300008d
:020000040000fa
:040018006a03000077
:020000040000fa
:04001c00820300005b
:020000040000fa
:040020007a0300005f
:020000040000fa
:040024008203000053
:020000040000fa
:04002800820300004f
:020000040000fa
:04002c00820300004b
:020000040000fa
:040030008203000047
:020000040000fa
:040034008203000043
:020000040000fa
:04003800820300003f
:020000040000fa
:04003c00820300003b
:020000040000fa
:040040008203000037
:020000040000fa
:040044008203000033
:020000040000fa
:04004800820300002f
:020000040000fa
:04004c00820300002b
:020000040000fa
:040050008203000027
:020000040000fa
:040054008203000023
:020000040000fa
:04005800820300001f
:020000040000fa
:04005c00820300001b
:020000040000fa
:040060008203000017
:020000040000fa
:040064008203000013
:020000040000fa
:04006800820300000f
:020000040000fa
:04006c00820300000b
:020000040000fa
:040070008203000007
:020000040000fa
:040074008203000003
:020000040000fa
:0400780082030000ff
:020000040000fa
:04007c0082030000fb
:020000040000fa
:0400800082030000f7
:020000040000fa
:0400840082030000f3
:020000040000fa
:0400880082030000ef
:020000040000fa
:04008c0082030000eb
:020000040000fa
:0400900082030000e7
:020000040000fa
:0400940082030000e3
:020000040000fa
:0400980082030000df
:020000040000fa
:04009c0082030000db
:020000040000fa
:0400a00082030000d7
:020000040000fa
:0400a40082030000d3
:020000040000fa
:0400a80082030000cf
:020000040000fa
:0400ac0082030000cb
:020000040000fa
:0400b00082030000c7
:020000040000fa
:0400b40082030000c3
:020000040000fa
:0400b80082030000bf
:020000040000fa
:0400bc0082030000bb
:020000040000fa
:0400c00082030000b7
:020000040000fa
:0400c40082030000b3
:020000040000fa
:0400c80082030000af
:020000040000fa
:0400cc0082030000ab
:020000040000fa
:0400d00082030000a7
:020000040000fa
:0400d40082030000a3
:020000040000fa
:0400d800820300009f
:020000040000fa
:0400dc00820300009b
:020000040000fa
:0400e0008203000097
:020000040000fa
:0400e4008203000093
:020000040000fa
:0400e800820300008f
:020000040000fa
:0400ec00820300008b
:020000040000fa
:0400f0008203000087
:020000040000fa
:0400f4008203000083
:020000040000fa
:0400f800820300007f
:020000040000fa
:0400fc00820300007b
:020000040000fa
:040100008203000076
:020000040000fa
:040104008203000072
:020000040000fa
:04010800820300006e
:020000040000fa
:04010c00820300006a
:020000040000fa
:040110008203000066
:020000040000fa
:040114008203000062
:020000040000fa
:04011800820300005e
:020000040000fa
:04011c00820300005a
:020000040000fa
:040120008203000056
:020000040000fa
:040124008203000052
:020000040000fa
:04012800820300004e
:020000040000fa
:04012c00820300004a
:020000040000fa
:040130008203000046
:020000040000fa
:040134008203000042
:020000040000fa
:04013800820300003e
:020000040000fa
:04013c00820300003a
:020000040000fa
:040140008203000036
:020000040000fa
:040144008203000032
:020000040000fa
:04014800820300002e
:020000040000fa
:04014c00820300002a
:020000040000fa
:040150008203000026
:020000040000fa
:040154008203000022
:020000040000fa
:04015800820300001e
:020000040000fa
:04015c00820300001a
:020000040000fa
:040160008203000016
:020000040000fa
:040164008203000012
:020000040000fa
:04016800820300000e
:020000040000fa
:04016c00820300000a
:020000040000fa
:040170008203000006
:020000040000fa
:040174008203000002
:020000040000fa
:0401780082030000fe
:020000040000fa
:04017c0082030000fa
:020000040000fa
:0401800082030000f6
:020000040000fa
:0401840082030000f2
:020000040000fa
:0401880082030000ee
:020000040000fa
:04018c0082030000ea
:020000040000fa
:0401900082030000e6
:020000040000fa
:0401940082030000e2
:020000040000fa
:0401980082030000de
:020000040000fa
:04019c0082030000da
:020000040000fa
:0401a00082030000d6
:020000040000fa
:0401a40082030000d2
:020000040000fa
:0401a80082030000ce
:020000040000fa
:0401ac0082030000ca
:020000040000fa
:0401b00082030000c6
:020000040000fa
:0401b40082030000c2
:020000040000fa
:0401b80082030000be
:020000040000fa
:0401bc0082030000ba
:020000040000fa
:0401c00082030000b6
:020000040000fa
:0401c40082030000b2
:020000040000fa
:0401c80082030000ae
:020000040000fa
:0401cc0082030000aa
:020000040000fa
:0401d00082030000a6
:020000040000fa
:0401d40082030000a2
:020000040000fa
:0401d800820300009e
:020000040000fa
:0401dc00820300009a
:020000040000fa
:0401e0008203000096
:020000040000fa
:0401e4008203000092
:020000040000fa
:0401e800820300008e
:020000040000fa
:0401ec00820300008a
:020000040000fa
:0401f0008203000086
:020000040000fa
:0401f4008203000082
:020000040000fa
:0401f800820300007e
:020000040000fa
:0401fc00820300007a
:020000040000fa
:040200008203000075
:020000040000fa
:040204008203000071
:020000040000fa
:04020800820300006d
:020000040000fa
:04020c008203000069
:020000040000fa
:040210008203000065
:020000040000fa
:040214008203000061
:020000040000fa
:04021800820300005d
:020000040000fa
:04021c008203000059
:020000040000fa
:040220008203000055
:020000040000fa
:040224008203000051
:020000040000fa
:04022800820300004d
:020000040000fa
:04022c008203000049
:020000040000fa
:040230008203000045
:020000040000fa
:040234008203000041
:020000040000fa
:04023800820300003d
:020000040000fa
:04023c008203000039
:020000040000fa
:040240008203000035
:020000040000fa
:040244008203000031
:020000040000fa
:04024800820300002d
:020000040000fa
:04024c008203000029
:020000040000fa
:040250008203000025
:020000040000fa
:040254008203000021
:020000040000fa
:04025800820300001d
:020000040000fa
:04025c008203000019
:020000040000fa
:040260008203000015
:020000040000fa
:040264008203000011
:020000040000fa
:04026800820300000d
:020000040000fa
:04026c008203000009
:020000040000fa
:040270008203000005
:020000040000fa
:040274008203000001
:020000040000fa
:0402780082030000fd
:020000040000fa
:04027c0082030000f9
:020000040000fa
:0402800082030000f5
:020000040000fa
:0402840082030000f1
:020000040000fa
:0402880082030000ed
:020000040000fa
:04028c0082030000e9
:020000040000fa
:0402900082030000e5
:020000040000fa
:0402940082030000e1
:020000040000fa
:0402980082030000dd
:020000040000fa
:04029c0082030000d9
:020000040000fa
:0402a00082030000d5
:020000040000fa
:0402a40082030000d1
:020000040000fa
:0402a80082030000cd
:020000040000fa
:0402ac0082030000c9
:020000040000fa
:0402b00082030000c5
:020000040000fa
:0402b40082030000c1
:020000040000fa
:0402b80082030000bd
:020000040000fa
:0402bc0082030000b9
:020000040000fa
:0402c00082030000b5
:020000040000fa
:0402c40082030000b1
:020000040000fa
:0402c80082030000ad
:020000040000fa
:0402cc0082030000a9
:020000040000fa
:0402d00082030000a5
:020000040000fa
:0402d40082030000a1
:020000040000fa
:0402d800820300009d
:020000040000fa
:0402dc008203000099
:020000040000fa
:0402e0008203000095
:020000040000fa
:0402e4008203000091
:020000040000fa
:0402e800820300008d
:020000040000fa
:0402ec008203000089
:020000040000fa
:0402f0008203000085
:020000040000fa
:0402f4008203000081
:020000040000fa
:0402f800820300007d
:020000040000fa
:0402fc008203000079
:020000040000fa
:040300008203000074
:020000040000fa
:040304008203000070
:020000040000fa
:04030800820300006c
:020000040000fa
:04030c008203000068
:020000040000fa
:040310008203000064
:020000040000fa
:040314008203000060
:020000040000fa
:04031800820300005c
:020000040000fa
:04031c008203000058
:020000040000fa
:040320008203000054
:020000040000fa
:100400004f0221000eff24000e0188000000200092
:100410000000e000020032000001200020028800fd
:1004200014000700b90007000000e00003003a00d4
:10043000006e2000010020000200370000002000b4
:1004400001002000810f70004220ae000f00070065
:10045000000020000000e0004220ae00000002008a
:100460000000000076040200000000000040da00f6
:100470000000fe00200020000000e000020032002a
:10048000100020009001880000000600a1028800f2
:10049000800478000000eb001f003700e284440075
:1004a00054a0b4009905ba00e284440054a0b400fa
:1004b0009906ba00e284440054a0b4000006eb00a0
:1004c000476fde00fd07b200ae018800636ce100fb
:1004d00003003a000ad801000000eb000e003700cc
:1004e000606ce10008003a00004deb000a05e800ee
:1004f000020039003420ec000af0a0008b05e9006e
:10050000f9ff3e00040037006168e100010032009d
:100510000086eb000b00070019c7ba001905ba00e6
:100520000e04e00003003a000a00e000dbff3a009e
:1005300000000600fe07b200ae0288008a047800c0
:10054000f5ff37000cd0a300e20f4d001c0039006e
:1005500089027800354dba000a05e800020039002a
:100560003420ec000af0a0008b05e9000f003200f7
:10057000254dba000a05e800020039003420ec00dd
:100580000af0a0008b05e900080032000c00e00032
:100590000600320015cdba000a05e8000200390055
:1005a0003420ec000af0a0008b05e9008984e80003
:1005b00054a0b4000b00e000e2ff3a000000060087
:1005c0009902ba00055d78008b05e900f7ff32005b
:1005d000c82ade00055d78008b05e900f3ff3200d4
:1005e0000c00e000f1ff320019ddba00eeff370029
:1005f0006100e10001003200100005003200f80047
:100600003400f8000002be00930188003200be00f2
:100610000100e0000700320032037800c733de003b
:10062000a7018800f607b2007f30e1000400320025
:10063000200020003400f9003200f900000006001c
:100640008100e9000500e00003003a000180090094
:1006500032100300edff37000180090032900300e3
:10066000d561ae00e9ff370030002000f1ff370010
:1006700050052000b00e8800a00a2000b00e8800af
:10068000d3e1a8000000060050052000b00e88004d
:10069000a00a2000b00e8800d3e1a90000000600e7
:1006a0003600f800c028a9000000eb00b9010700df
:1006b0003600f800bb010700c048a9001000200068
:1006c000b40107003600f800c068a900200020002f
:1006d000b00107003600f800c088a90030002000f3
:1006e000ac0107003600f800c608a9007000200021
:1006f000a80107003600f800c408a900b0002000d7
:10070000a40107000040da000000fe000000050020
:020000040000fa
:100710000600fa00200798006000b800008fbe00b5
:1007200001003700000000001e00be006100400014
:10073000e0804800008fbe002e0090006101b900eb
:100740001e00be00800f5100818f5900f5ff3a0056
:10075000000000000080fa00000006000200fa001d
:10076000000f78001e0078000000e00011003a0041
:1007700080322200e6ff0700b07380006100600055
:1007800000f0a7000000ea000000e9004f00de00d2
:10079000004078000080fb0061006000b1738000c1
:1007a0000100a10001007000b07388001e0fe80076
:1007b0001200370080322200d5ff0700b07380009e
:1007c0006200600000f0a7000000ea000000e900fd
:1007d0004f00de00004078000080fb0061006000f8
:1007e00000004000b17380000110a1000100700002
:1007f000b07388000000eb00000f78000080fa0062
:10080000000006000200fa00000f78001e007800c9
:10081000e20f50000d003200e30f500014003200d0
:10082000e10f50001b003a00a17380000008200077
:100830000080600000f0a7000000ea000000e9006e
:100840004f00de000040780013003700a1738000e5
:10085000001020000080600000f0a7000000ea0007
:100860000000e9004f00de00004078000a00370079
:10087000a1738000002020000080600000f0a7002d
:100880000000ea000000e9004f00de0000407800b0
:10089000010037000040eb000080fa000000060075
:1008a0000200fa00000f78001e007800e20f5000ee
:1008b00006003200e30f500006003200e10f500046
:1008c00007003a0072eea80006003700730ea80079
:1008d00004003700732ea80000000000010037005c
:1008e000000000000080fa00000006000200fa008c
:1008f000df00070010002000e9ff07000000eb0008
:10090000000f780001003700000000001e00780092
:1009100092ff070010002000baff07000004e0006b
:10092000f9ff320011718000000024000080600097
:1009300000f0a7000000ea000000e9004f00de0020
:10094000004078000080fb00610060004e00dd0088
:100950001171800001e0a100010070001071880099
:10096000eaff37000000fa00007c80000080fa00f7
:10097000000006000200fa00faff0700000f7800ee
:100980001e007800240007000004e000020032008e
:1009900000002800710007001e0078002a000700f0
:1009a0000004e00002003200000024006b00070099
:1009b0001e007800320007000004e0000200320050
:1009c00000202000650007001e0078003a000700a4
:1009d0000004e00002003200000820005f00070071
:1009e0001e007800420007000004e0000200320010
:1009f00000042000590007001e0078004a0007008c
:100a00000004e00002003200000120005300070053
:100a10000080fa00000006000400fa0010079800a9
:100a20000040eb00004f78001e0090000000e00046
:100a300002003d0010c0b300004f78001e40780057
:100a40000080fa00000006000400fa001007980079
:100a50000040eb00004f78009e0090000000240052
:100a6000008060000000e0000200320010c0b3000f
:100a7000004f78001e4078000080fa000000060059
:100a80000400fa00100798000040eb00004f7800c7
:100a90009e00900000202000008060000000e00028
:100aa0000200320010c0b300004f78001e407800f2
:100ab0000080fa00000006000400fa001007980009
:100ac0000040eb00004f78009e00900000082000de
:100ad000008060000000e0000200320010c0b3009f
:100ae000004f78001e4078000080fa0000000600e9
:100af0000400fa00100798000040eb00004f780057
:100b00009e00900000042000008060000000e000d3
:100b10000200320010c0b300004f78001e40780081
:100b20000080fa00000006000400fa001007980098
:100b30000040eb00004f78001e0090007000600045
:100b40000000e0000200320010c0b300004f780047
:100b50001e4078000080fa00000006000200fa0043
:100b6000000f78009e80ea00007c8000008060001a
:100b7000007c88000080fa00000006000000fa00f7
:100b8000802fef000080fa00000006000000fa004d
:100b9000062eef00222eef0010002000f0718800da
:100ba0005a2eef00762eef00f00120001070880022
:100bb000d0ff2f00f0708800e0ff2f00d071880078
:100bc0000080eb00b07288000080eb00907388001a
:100bd0000c2eef00282eef00442eef00602eef00c9
:100be0007c2eef000a2eef00262eef00422eef00a3
:100bf0005e2eef007a2eef00082eef00242eef007d
:100c0000402eef005c2eef00782eef00f001200068
:100c100000708800d0082000e0708800e008200004
:100c2000c071880000402000a07288000080fa0097
:100c3000000006000200fa00000f78002102800088
:100c4000200f2000008060001e007000200288003d
:100c50000080fa00000006000000fa00c3e8a800c7
:100c600000000000000000000080fa000000060004
:100c70000000fa00c5ff0700140007005b00070032
:100c8000f5ff070000022000eaff0700720ea9002e
:100c9000722ea9001fcea90072eea80023cea900d3
:100ca000760ea900762ea900004180000010a00059
:100cb0000041880001428000000720000100700010
:100cc000004288000080fa00000006000000fa00e0
:100cd00010002300307c880060092000407c8800e0
:100ce0008c2fef0010042000507c88001010200092
:100cf000707c880060092000807c8800100420003f
:100d0000907c88009a2fef00b82fef00ba2fef00e9
:100d1000002def00a42fef00a62fef00a82fef006b
:100d2000aa2fef00ae2fef00b02fef00b22fef0091
:100d30000001eb00600420007105200043f8200052
:100d40008049780081497800824978000080fa0063
:100d5000000006000000fa00dcff07000080fa0037
:100d6000000006000000fa00007c80000080fa000d
:100d7000000006000000fa00fefe07000080fa00f6
:100d8000000006000000fa007cff07000080fa0067
:100d900000000600000f78009e0078001180880097
:100da000ffff37000000fa004000210080077800b4
:100db000c0012100000188000080fa000000060048
:020000040000fa
:100dc000001000000200000080000000041000007d
:100dd000200000008000000002100000020000005f
:0c0de00082000000ffff00000000000087
:020000040000fa
:0c0dec000000fa000080fa000000060081
:020000040000fa
:020000040002f8
:04be0000ffff000040
:020000040000fa
:020000040002f8
:04be2000ffffff0021
:020000040000fa
:020000040002f8
:04be3000ffffff0011
:020000040000fa
:020000040002f8
:04be3800bfffff0049
:020000040000fa
:020000040002f8
:04be40007453ff0038
:020000040000fa
:020000040002f8
:04be5000dfffff0011
:020000040000fa
:020000040002f8
:04be58000000ff00e7
:020000040000fa
:020000040002f8
:04be60000000ff00df
:020000040000fa
:020000040002f8
:04be68000000ff00d7
:020000040000fa
:020000040002f8
:04be70000000ff00cf
:020000040000fa
:020000040002f8
:04be7800ffffff00c9
:020000040000fa
:020000040002f8
:04be8000ffffff00c1
:020000040000fa
:020000040002f8
:04be8800ffffff00b9
:020000040000fa
:020000040002f8
:04beb000ffffff0091
:020000040000fa
:020000040002f8
:04bec000ffffff0081
:020000040000fa
:020000040002f8
:04bed000ffffff0071
:020000040000fa
:020000040002f8
:04bee000ffffff0061
:020000040000fa
:020000040002f8
:04bef000ffffff0051
:00000001FF
