:020000040000fa
:080000000002040000000000f2
:020000040000fa
:040008005c03000095
:020000040000fa
:04000c006e0300007f
:020000040000fa
:040010007e0300006b
:020000040000fa
:040014006403000081
:020000040000fa
:04001800760300006b
:020000040000fa
:04001c0032040000aa
:020000040000fa
:040020008603000053
:020000040000fa
:0400240032040000a2
:020000040000fa
:04002800320400009e
:020000040000fa
:04002c008e0300003f
:020000040000fa
:040030003204000096
:020000040000fa
:040034003204000092
:020000040000fa
:04003800320400008e
:020000040000fa
:04003c00320400008a
:020000040000fa
:040040003204000086
:020000040000fa
:040044003204000082
:020000040000fa
:04004800320400007e
:020000040000fa
:04004c00320400007a
:020000040000fa
:040050003204000076
:020000040000fa
:040054003204000072
:020000040000fa
:04005800320400006e
:020000040000fa
:04005c00320400006a
:020000040000fa
:040060003204000066
:020000040000fa
:040064003204000062
:020000040000fa
:04006800320400005e
:020000040000fa
:04006c00320400005a
:020000040000fa
:040070003204000056
:020000040000fa
:040074003204000052
:020000040000fa
:04007800320400004e
:020000040000fa
:04007c00320400004a
:020000040000fa
:040080003204000046
:020000040000fa
:040084003204000042
:020000040000fa
:04008800320400003e
:020000040000fa
:04008c00320400003a
:020000040000fa
:040090003204000036
:020000040000fa
:040094003204000032
:020000040000fa
:04009800320400002e
:020000040000fa
:04009c00320400002a
:020000040000fa
:0400a0003204000026
:020000040000fa
:0400a4003204000022
:020000040000fa
:0400a800320400001e
:020000040000fa
:0400ac00320400001a
:020000040000fa
:0400b0003204000016
:020000040000fa
:0400b4003204000012
:020000040000fa
:0400b800320400000e
:020000040000fa
:0400bc00320400000a
:020000040000fa
:0400c0003204000006
:020000040000fa
:0400c4003204000002
:020000040000fa
:0400c80032040000fe
:020000040000fa
:0400cc0032040000fa
:020000040000fa
:0400d00032040000f6
:020000040000fa
:0400d40032040000f2
:020000040000fa
:0400d80032040000ee
:020000040000fa
:0400dc0032040000ea
:020000040000fa
:0400e00032040000e6
:020000040000fa
:0400e40032040000e2
:020000040000fa
:0400e80032040000de
:020000040000fa
:0400ec0032040000da
:020000040000fa
:0400f00032040000d6
:020000040000fa
:0400f40032040000d2
:020000040000fa
:0400f80032040000ce
:020000040000fa
:0400fc0032040000ca
:020000040000fa
:0401000032040000c5
:020000040000fa
:0401040032040000c1
:020000040000fa
:0401080032040000bd
:020000040000fa
:04010c0032040000b9
:020000040000fa
:0401100032040000b5
:020000040000fa
:0401140032040000b1
:020000040000fa
:0401180032040000ad
:020000040000fa
:04011c0032040000a9
:020000040000fa
:0401200032040000a5
:020000040000fa
:0401240032040000a1
:020000040000fa
:04012800320400009d
:020000040000fa
:04012c003204000099
:020000040000fa
:040130003204000095
:020000040000fa
:040134003204000091
:020000040000fa
:04013800320400008d
:020000040000fa
:04013c003204000089
:020000040000fa
:040140003204000085
:020000040000fa
:040144003204000081
:020000040000fa
:04014800320400007d
:020000040000fa
:04014c003204000079
:020000040000fa
:040150003204000075
:020000040000fa
:040154003204000071
:020000040000fa
:04015800320400006d
:020000040000fa
:04015c003204000069
:020000040000fa
:040160003204000065
:020000040000fa
:040164003204000061
:020000040000fa
:04016800320400005d
:020000040000fa
:04016c003204000059
:020000040000fa
:040170003204000055
:020000040000fa
:040174003204000051
:020000040000fa
:04017800320400004d
:020000040000fa
:04017c003204000049
:020000040000fa
:040180003204000045
:020000040000fa
:040184003204000041
:020000040000fa
:04018800320400003d
:020000040000fa
:04018c003204000039
:020000040000fa
:040190003204000035
:020000040000fa
:040194003204000031
:020000040000fa
:04019800320400002d
:020000040000fa
:04019c003204000029
:020000040000fa
:0401a0003204000025
:020000040000fa
:0401a4003204000021
:020000040000fa
:0401a800320400001d
:020000040000fa
:0401ac003204000019
:020000040000fa
:0401b0003204000015
:020000040000fa
:0401b4003204000011
:020000040000fa
:0401b800320400000d
:020000040000fa
:0401bc003204000009
:020000040000fa
:0401c0003204000005
:020000040000fa
:0401c4003204000001
:020000040000fa
:0401c80032040000fd
:020000040000fa
:0401cc0032040000f9
:020000040000fa
:0401d00032040000f5
:020000040000fa
:0401d40032040000f1
:020000040000fa
:0401d80032040000ed
:020000040000fa
:0401dc0032040000e9
:020000040000fa
:0401e00032040000e5
:020000040000fa
:0401e40032040000e1
:020000040000fa
:0401e80032040000dd
:020000040000fa
:0401ec0032040000d9
:020000040000fa
:0401f00032040000d5
:020000040000fa
:0401f40032040000d1
:020000040000fa
:0401f80032040000cd
:020000040000fa
:0401fc0032040000c9
:020000040000fa
:0402000032040000c4
:020000040000fa
:0402040032040000c0
:020000040000fa
:0402080032040000bc
:020000040000fa
:04020c0032040000b8
:020000040000fa
:0402100032040000b4
:020000040000fa
:0402140032040000b0
:020000040000fa
:0402180032040000ac
:020000040000fa
:04021c0032040000a8
:020000040000fa
:0402200032040000a4
:020000040000fa
:0402240032040000a0
:020000040000fa
:04022800320400009c
:020000040000fa
:04022c003204000098
:020000040000fa
:040230003204000094
:020000040000fa
:040234003204000090
:020000040000fa
:04023800320400008c
:020000040000fa
:04023c003204000088
:020000040000fa
:040240003204000084
:020000040000fa
:040244003204000080
:020000040000fa
:04024800320400007c
:020000040000fa
:04024c003204000078
:020000040000fa
:040250003204000074
:020000040000fa
:040254003204000070
:020000040000fa
:04025800320400006c
:020000040000fa
:04025c003204000068
:020000040000fa
:040260003204000064
:020000040000fa
:040264003204000060
:020000040000fa
:04026800320400005c
:020000040000fa
:04026c003204000058
:020000040000fa
:040270003204000054
:020000040000fa
:040274003204000050
:020000040000fa
:04027800320400004c
:020000040000fa
:04027c003204000048
:020000040000fa
:040280003204000044
:020000040000fa
:040284003204000040
:020000040000fa
:04028800320400003c
:020000040000fa
:04028c003204000038
:020000040000fa
:040290003204000034
:020000040000fa
:040294003204000030
:020000040000fa
:04029800320400002c
:020000040000fa
:04029c003204000028
:020000040000fa
:0402a0003204000024
:020000040000fa
:0402a4003204000020
:020000040000fa
:0402a800320400001c
:020000040000fa
:0402ac003204000018
:020000040000fa
:0402b0003204000014
:020000040000fa
:0402b4003204000010
:020000040000fa
:0402b800320400000c
:020000040000fa
:0402bc003204000008
:020000040000fa
:0402c0003204000004
:020000040000fa
:0402c4003204000000
:020000040000fa
:0402c80032040000fc
:020000040000fa
:0402cc0032040000f8
:020000040000fa
:0402d00032040000f4
:020000040000fa
:0402d40032040000f0
:020000040000fa
:0402d80032040000ec
:020000040000fa
:0402dc0032040000e8
:020000040000fa
:0402e00032040000e4
:020000040000fa
:0402e40032040000e0
:020000040000fa
:0402e80032040000dc
:020000040000fa
:0402ec0032040000d8
:020000040000fa
:0402f00032040000d4
:020000040000fa
:0402f40032040000d0
:020000040000fa
:0402f80032040000cc
:020000040000fa
:0402fc0032040000c8
:020000040000fa
:0403000032040000c3
:020000040000fa
:0403040032040000bf
:020000040000fa
:0403080032040000bb
:020000040000fa
:04030c0032040000b7
:020000040000fa
:0403100032040000b3
:020000040000fa
:0403140032040000af
:020000040000fa
:0403180032040000ab
:020000040000fa
:04031c0032040000a7
:020000040000fa
:0403200032040000a3
:020000040000fa
:100400006f1721000eff24000e018800000020005d
:100410000000e000020032000001200020028800fd
:1004200014000700860107000000e00003003a0006
:10043000c019220001002000020037000000200047
:1004400001002000810f70004220ae000f00070065
:10045000000020000000e0004220ae00000002008a
:1004600000000000161d0200000000000040da003d
:100470000000fe00201320000000e0000200320017
:10048000002020009001880000000600a1028800e2
:10049000800478000000eb001f003700e284440075
:1004a00054a0b4009905ba00e284440054a0b400fa
:1004b0009906ba00e284440054a0b4000006eb00a0
:1004c000476fde00fd07b200ae018800636ce100fb
:1004d00003003a000ad801000000eb000e003700cc
:1004e000606ce10008003a00004deb000a05e800ee
:1004f000020039003420ec000af0a0008b05e9006e
:10050000f9ff3e00040037006168e100010032009d
:100510000086eb000b00070019c7ba001905ba00e6
:100520000e04e00003003a000a00e000dbff3a009e
:1005300000000600fe07b200ae0288008a047800c0
:10054000f5ff37000cd0a300e20f4d001c0039006e
:1005500089027800354dba000a05e800020039002a
:100560003420ec000af0a0008b05e9000f003200f7
:10057000254dba000a05e800020039003420ec00dd
:100580000af0a0008b05e900080032000c00e00032
:100590000600320015cdba000a05e8000200390055
:1005a0003420ec000af0a0008b05e9008984e80003
:1005b00054a0b4000b00e000e2ff3a000000060087
:1005c0009902ba00055d78008b05e900f7ff32005b
:1005d000c82ade00055d78008b05e900f3ff3200d4
:1005e0000c00e000f1ff320019ddba00eeff370029
:1005f0006100e10001003200100005003200f80047
:100600003400f8000002be00930188003200be00f2
:100610000100e0000700320032037800c733de003b
:10062000a7018800f607b2007f30e1000400320025
:10063000200020003400f9003200f900000006001c
:100640008100e9000500e00003003a000180090094
:1006500032100300edff37000180090032900300e3
:10066000d561ae00e9ff370030002000f1ff370010
:1006700050052000b00e8800a00a2000b00e8800af
:10068000d3e1a8000000060050052000b00e88004d
:10069000a00a2000b00e8800d3e1a90000000600e7
:1006a000b2050400000000007e10040000000000fd
:1006b00000000400000000003600f800c028a90077
:1006c0000000eb00401007003600f8004210070061
:1006d000c048a900100020003b1007003600f800b9
:1006e000c068a90020002000371007003600f8007d
:1006f000c088a90030002000331007003600f80041
:10070000c608a900700020002f1007003600f8006e
:10071000c408a900b00020002b1007003600f80024
:10072000809fbe00829fbe00849fbe00869fbe0049
:100730003200f8003400f80010002000a00188000a
:1007400000202000900188000200fa000040eb0029
:10075000004f7800360037001e80fb006a00b900a9
:1007600080007800a00a210000804000100078007e
:100770000000e0002d0032001e81fb006a10b9006d
:1007800000007800e6004000a00a21000080400040
:100790001000be0061004000e08048006a11b9000e
:1007a00082017800020b2100028141000089be0015
:1007b0001e80fb006a00b90000007800e6004000df
:1007c000a00a2100008040001001be001e80fb0036
:1007d0006a00b900000078008080e800a00a2100cb
:1007e000008040001000be00800f5100818f590032
:1007f0000e003a001e80fb006a00b90080007800fd
:10080000a00a2100008040001000780000000100d4
:100810001e80fb006a00b90080007800000b2100f8
:10082000008140006000b8000089be001e4fe80053
:100830001e407800e94f5000c7ff36000028a9008d
:100840000080fa003400f9003200f9004f03be00c6
:100850004f02be004f01be004f00be003600f9003f
:10086000004006000040da000000fe000a00fa0026
:1008700011002000b1bf9f00c0bf9f006a805700d9
:10088000d30607004fb897000080fa00000006006a
:100890000a00fa00e20f500034003e00908b800006
:1008a000e10f500003003200e20f500011003a0047
:1008b0000c003700832320000300e00001003a0011
:1008c0000040da003802e200020035004022ef006a
:1008d00039e2a80038a2ab000d003a0038a2a80007
:1008e0000b003700032620000300e00001003a005f
:1008f0000040da006002e200020035006822ef00ea
:1009000061e2a80060a2ab0001003a0060a2a8006a
:10091000820178000b0037003102fb00e10f50002c
:1009200004003a003e82ab00feff3a004412880009
:10093000030037006682ab00feff3a008413880094
:100940008301e9000300e000f3ff3a00e10f5000eb
:1009500003003a003ea2ab00feff32000b0037005e
:1009600066a2ab00feff3200080037003300200013
:10097000b3bf9f00c0bf9f00d1bf9f00e2bf9f00d9
:100980006a805700940607006fb99700020078004c
:100990000080fa00000006000a00fa005100200062
:1009a000b1bf9f00c0bf9f006a8057008c06070040
:1009b0005fb897000080fa0000000600889fbe0024
:1009c00080047800a08b80000000e00004003a0062
:1009d0000e0007000084eb000000e0000800350076
:1009e000a88b80000900e0000500320009004400e7
:1009f000060007000000e00001003d000084eb005d
:100a0000080078004f04be00000006008000780057
:100a10000100e00003003a0000002000a08b8800e5
:100a2000000005000080eb0002002000828f5000d3
:100a300002003e00a18b88000000eb0000000600d1
:100a4000000005006022b800060220000000d0006f
:100a50008180d2000482d2008582d2000000a000f2
:100a60000202520083825a00030031000202420057
:100a700083824a000000a1000603e900f3ff3a0068
:100a800000000600800178000200370081597800dc
:100a90000201e9000200e000fcff3a00000006004d
:100aa000a104210044020700800078000080eb00d0
:100ab0000100e00004003500a1042100a000200096
:100ac000020007004f80de0000000600889fbe0085
:100ad0008a1f78000004be00c900900069009000e1
:100ae000808f50000500390009007800fb020700e4
:100af0008080eb000000e00016003500084578001b
:100b00004900900008587800c00498001900780047
:100b100000b8a30004003a0000a8a30007003200b8
:100b2000ea4f540005003a0009007800e701070089
:100b30008080eb000000e00006003a0000c02000ca
:100b4000190060000200320049009000e0049800a3
:100b50008a80fb00010078004f0578004f04be003a
:100b600000000600889fbe000004780001007800a5
:100b700082047800880178000901780011002000c3
:100b800055020700890f5000010032000004eb00fd
:100b9000080078004f04be00000006000000fa00c4
:100ba000e88157004fb99700a1042100205b200085
:100bb000020007000080fa00000006006200fa0050
:100bc000889fbe008a1f78000005780081047800a5
:100bd000020478008300780080f92f000f004000a5
:100be000f00407009a979f00a9979f000000eb0070
:100bf000b09f9f001885fb008a04fb000a05ea00ed
:100c00004f55de0050022000808f54000d0032004e
:100c1000e10f55000b003a000a01780088007800c7
:100c20002f9097009f91970003000100a0979f00cd
:100c30000000e0008e0032003f9897000000e800be
:100c4000b09f9f000a04440050022000808f54008f
:100c5000040032000900e000e6ff3a003f989700e8
:100c6000840037000000eb00909f9f00809f9f0052
:100c7000f0979f00e0979f00d0979f00c0979f003c
:100c8000070037004116210001005000000040001d
:100c90008115210061007800df9897000100700045
:100ca000d09f9f00880478000904780038457800b8
:100cb0008a00fb00401621006c0207000000e000e3
:100cc000f0ff3a00a1c2b300814f55000e003a0078
:100cd000cf8897000180e900c08f9f001000780046
:100ce000c09f9f000000e00005003d000000ea00fa
:100cf000c09f9f005f9897000020a000d09f9f009a
:100d00000904e8000f003700c09f9f000000eb00bf
:100d100005003700f2ff2700820f5000020032006a
:100d20006a01b90002804000090478008804780054
:100d3000b900fb000103b100e98f5000f5ff360058
:100d4000c09f9f00e0c2b300984f10000200320025
:100d50000080eb0019003700a0c2b300d84f10008c
:100d600007003a00cf8897000180e900c08f9f00fc
:100d700010007800a09f9f000804e80010003700d2
:100d80000000eb00a09f9f0088007800050037005e
:100d9000f3ff2700830f5000020032006a02b900ff
:100da0000400410001047800880078003101fb0054
:100db0000203b100e90f5100f5ff3600a09f9f002c
:100dc000984478008900fb000015210027020700e5
:100dd0000000e000020032000804e80001003700d3
:100de0008044eb00c97f9f0080c6b30080cf5400d1
:100df00004003a0098cf14000a003a006640500000
:100e000006003700c0c6b30080cf540005003a008a
:100e100098cf140003003a0065404000c07f9f0057
:100e20000804e8001801fb00e3fb2f008f8141005c
:100e300081f92f008f804000a0f92f000f004000a3
:100e4000100007000000e00009003a00e1fb2f005d
:100e50008f804000a0f92f000f004000950307008d
:100e60000000e000020035000804e80061ff3700e0
:100e70000080eb004f0578004f04be000080fa00b0
:100e800000000600889fbe008a9fbe00e4c6b30033
:100e9000844f5100be00320010003c006b425200f3
:100ea000844f51001800320005003c0054c2b300ca
:100eb000844f5100f600320084c5b3000f003700a4
:100ec00044c6b300844f5100140032006542420012
:100ed000844f5100f1003a001000370004c7b300fe
:100ee000844f5100dd00320056003500654242005b
:100ef000844f51005300320063424200844f51003e
:100f0000e6003a004f0037001181e90082087800be
:100f1000f000900012417800de003700206290005f
:100f2000c5c6b300854f520007003a009102780011
:100f300064825200840878001402be004fabde00c9
:100f4000860378001400370015c7b300854f5200a0
:100f500003003a00110478006802540005003700cd
:100f6000a5c6b300854f520006003a0091047800f0
:100f700068825400840878005403be004402be0016
:100f8000050037001182e900840878001402780017
:100f9000cfa2de00612bb9000498be000690be000f
:100fa000a060900088c6b30088cf50000d003200ca
:100fb00028c6b30088cf500004003a000402fb00aa
:100fc000cfa2de00612bb9000800370048c7b3008c
:100fd00088cf5000030032006644440088cf5000a0
:100fe00004003a00cfa2de00612bb9000498be00d5
:100ff0000690be003002be002003be00f00090004c
:10100000e00f5200e08f5a00e00f5b00e08f5b00c2
:1010100002003d00d4c2b300080037000012900067
:101020000418a30002003200b4c2b300030037006a
:101030000408a3005100320004c2b30084f1780018
:101040004c00370020629000c5c6b300854f5200a7
:1010500008003a0011057800640255008408780001
:101060001404be006055b8000802be000a03be00aa
:101070001400370015c7b300854f520003003a0033
:10108000910478006882540005003700a5c6b300bb
:10109000854f520006003a0011057800680255009d
:1010a000840878005403be004402be0005003700e7
:1010b0001182e90084087800140278008002eb00b5
:1010c0006033b8000498be000690be00a060900097
:1010d00088c6b30088cf50000d00320028c6b30088
:1010e00088cf500004003a000482fb008002eb002d
:1010f0006033b8000800370048c7b30088cf5000fd
:10110000030032006644440088cf500004003a00d7
:101110008002eb006033b8000498be000690be0069
:10112000801090000138a300140032003002be008d
:101130002003be00e00f5200e08f5a00e00f5b007a
:10114000e08f5b000d00320081c7b300814f51007a
:101150000300320081c5b300814f510007003a00ff
:10116000f000900004c3b30084f178008100e8002f
:1011700082f178008100e80071009800f000900092
:101180008181410063009800824078003e00370072
:10119000a0619000c4c6b3001181e90084cf510062
:1011a000220032000a003c006442520084cf510009
:1011b0002500320004c2e80084cf51001300320041
:1011c0006842520084cf51001e003a000a003700e6
:1011d00044c7b30084cf51001b0032006642420076
:1011e00084cf5100180032006942520084cf510070
:1011f00014003a0005003700820878009200780059
:1012000040589000804878002c0037008208780011
:1012100092007800600a9000cfa2de00612bb90036
:101220008498be008690be002400370082087800b3
:101230009200780060099000cf91de008288be00a5
:101240001e0037001181e9008208780092007800c2
:101250006008900080087800180037001181e900cc
:101260008208780012027800cfa2de00612bb9005c
:101270000498be000690be00f000900081814100fd
:101280006300980081c7b3005b0107000b003700c3
:10129000f000900082f1780006003700f000900026
:1012a000818141000204e00001003a0052c2b30013
:1012b000824978008100e800710098000000eb008e
:1012c0004f05be004f04be0000000600889fbe0010
:1012d0008a1f7800000478000800e0000d003a0042
:1012e00088092100700544008004eb005800780054
:1012f0000000e00004003200f4ff07000000e000fe
:1013000001003d008084eb008a0f5400f7ff3a0093
:101310002500370000002200180060008004eb0068
:1013200021003200a80490000f003700090151008d
:10133000384090000000fb008900780054fd070051
:101340000000e00007003c002800900040049800e6
:1013500060049800500c98001890a0008084eb0066
:10136000110037008084440048019000828f5400af
:10137000eeff3900280090004004980098007800a3
:1013800002c020000281600001003a003800900095
:1013900001e8a30002003200600498000100370059
:1013a000500c98008004eb00090078004f0578008d
:1013b0004f04be0000000600889fbe008a9fbe004a
:1013c00080047800010478002c003700c8009000e9
:1013d00068009000808f50000400390008007800f9
:1013e000be0007000000e00037003500004020008c
:1013f0001800600009003200a100200009007800f8
:10140000ac000700800578000b00e000030032000c
:10141000618514000a854500040037000900780042
:101420009e000700000578008005eb004800900052
:10143000e8009000808050008a8f50000200310048
:10144000010578008005eb000a017800890078002a
:101450007f000700480090000a0040004004980008
:101460000b00e000040032000800780097ff07003e
:101470000000e00014003a008a8444001904e000ef
:10148000d2ff3a0000802000180060000600320001
:10149000080078008dff0700800078000080eb00d6
:1014a0000100e00009003a0001c0200098806000bf
:1014b0000000eb0005003200480090006004980036
:1014c0000000eb00010037000080eb004f05be007c
:1014d0004f04be0000000600889fbe008a9fbe0029
:1014e0008c9fbe008e1f78000006780001047800f3
:1014f00002007800830478000881b90002077800b0
:101500000200e000420032000800e000410032002a
:1015100082057800c900900069009000808f50001b
:1015200004003900090078006c0007000000e000aa
:101530002900350000402000190060000a00320038
:101540000b017800a10020000c0078003600070095
:10155000800678000d00e0000600320061051600ec
:101560000a854600040037000b0578008006eb0072
:10157000010037000b05780049009000e900900059
:10158000808050008a8f50000200310001057800f1
:101590008006eb000a0178008c0078002c00070020
:1015a0008a855500490090000a004000c004980058
:1015b0000d00e000040032000900780043ff07003e
:1015c0000000e00004003a000b00e00002003200de
:1015d0000a064600cfff3700008020001900600097
:1015e000020032000900780038ff070000c0200028
:1015f000190060000200320049009000e0049800e9
:101600008b055700050009008885d80001003700c8
:101610000000eb004f0778004f06be004f05be00ec
:101620004f04be000000060003003700b0cf1000da
:10163000050032000201e900800178000200e000ac
:10164000faff3a00000005000300780000000600e1
:101650008001780002003700b15978000201e900ea
:101660000200e000fcff3a00000006000200370024
:101670000304e00006003200000178000200780058
:10168000b041780081cf5100f9ff3a0001003700e6
:101690000001eb00020078000000060080007800e6
:1016a000010178003104e000fdff3a000000510024
:1016b000000006000001eb0000027800b041780055
:1016c00081cf510001003a00040178000304e000da
:1016d000f9ff3a000200780000000600889fbe0073
:1016e0008a1f780000047800c8009000680190000c
:1016f0000000eb00828f50003c0039001800780099
:101700002200290002016000e20f510007003200b0
:10171000012024000000e00001003d000120200025
:10172000008c70000080eb003000370002002600c3
:1017300002006000820f500009003a00380090005b
:10174000808f50000600390008007800dffe070097
:10175000800078000080eb000100e00023003a00e8
:101760001805780000c020000000650018003a004d
:10177000a80490006002200008004000808f540000
:1017800013003a0000202000dd020700200498002a
:101790000000e00005003a00290498004904980080
:1017a0008904e80039049800080037000a60a000a6
:1017b0000a0c78004004980001202000808040003e
:1017c00031049800400c9800500c9800f901070073
:1017d00028009000500498003800900060049800a1
:1017e00000002600180c70000000eb004f05780088
:1017f0004f04be0000000600fc874700889fbe0023
:101800008a9fbe008c9fbe008e1f78000006780065
:1018100080c5b30080cf50000a00320077404000fe
:1018200080cf50000a0032006940400080cf500055
:101830000b003200f011210080bf9f00ae0020009d
:101840000a003700e210210082bf9f000600370027
:10185000f311210083bf9f008e002000030037009a
:10186000f411210084bf9f000e0120003c02be0045
:101870002c03be000605be000404be0040c6b30033
:1018800080cf5000030032006540400080cf500000
:101890000b003a00e00f5200e08f5a00e00f5b00af
:1018a000e08f5b0006003d006000b8006011b800ea
:1018b00004045000858458000605590087855900a6
:1018c000e80f57000400320040002000f00f5700de
:1018d00038003a000100370030002000e00f5400cb
:1018e000e08f5c00e00f5d00e08f5d0004003a00d7
:1018f000dc0890008d0120000100e00006003200ad
:101900008e00e900888060008fba9700e5c07800fb
:10191000f1ef9f007d012000800078008100e90048
:10192000050033008b05d1000a85d3008984d300dc
:101930000884d300f9ff3700089ebe000a96be0057
:10194000120037008d06e9008e00e90084806000f7
:101950000fb99700e2c1780082fd2f000f0141000e
:1019600003f17e00800078008100e900050033006b
:101970008783d1000683d3008582d3000482d300fd
:10198000f9ff3700049ebe000696be003c02be0072
:101990002c03be00e00f5200e08f5a00e00f5b0006
:1019a000e08f5b008b0034000d00e000e5ff3c00a1
:1019b000880037002c60900081c6b300814f500032
:1019c0000b00320006003c000004e000080032007a
:1019d000e6c05000814f50004e003a00040037002e
:1019e000c1c6b300814f50004a003a0021003700c1
:1019f0000800e00004003a005c0890008d0120001f
:101a00000000e00006003200050009000e84d80046
:101a10000fb99700e2c07800f1ef9f007d01200030
:101a2000050009000e84d8000a00370005000900ef
:101a30000e04d8008d06e9000e81b900020454009e
:101a40008fb8970061417c0081fd2f008f8040009e
:101a500082f07e00000478000800e00002003200fe
:101a60000d00e000f1ff3c00cfc4de00614db90085
:101a700025003700e00f5400e08f5c0004003a00be
:101a80005c0890008d0120000000e000070032009b
:101a90006171b9000800be00620207008fb99700ab
:101aa000e3417800f3ef9f007d0120006171b900f0
:101ab0000800be00e3fb07000b0037006171b900ae
:101ac0000800be00480207008d06e90000f1b900d9
:101ad000020454000fba9700e4427c0084fd2f00fa
:101ae0000f02420005f27e000004be00e00f50002d
:101af000e08f5800020032000d00e000efff3c00d4
:101b00004fcdde008a057800089ebe000a96be0012
:101b100030003700e00f5400e08f5c00e00f5d0004
:101b2000e08f5d0004003a005c0890008d01200009
:101b30000000e000090032006172b900612bb900b9
:101b40000800be000a01be00df0207000fba9700be
:101b500064427800f4ef9f007d0120006172b900bb
:101b6000612bb9000800be000a01be00cf020700c9
:101b70000d0037006172b900612bb9000800be008a
:101b80000a01be00d40207008d06e90000f2b90088
:101b9000040454008fba970065427c0085fd2f0035
:101ba0008f82420084f27e00009ebe000296be003c
:101bb0003c04be002c05be00e00f5400e08f5c002a
:101bc000e00f5d00e08f5d00020034000d00e000da
:101bd000e8ff3c00e80f570010003a000c1090009e
:101be0000038a3000d003200f78f560006003e00bb
:101bf00085fd2f008f824200e5c07e0000c3b30048
:101c000080cf5000050032008d06e90002c3b3000a
:101c100081fd2f008f80400082f07e0078811600c9
:101c2000120e98006c00900083fd2f008f81410000
:101c30008d80410086fe07001c089000dc089000a3
:101c4000810f500006003d0000805000000e9800fb
:101c50000c1090000040a100001698000f00370003
:101c60000100e0000d003d008c109000f480600049
:101c7000f08f500009003a007c099000fc009000b1
:101c8000810051000c0990008280500000805000bb
:101c90004240a90001003400000e98004f07780070
:101ca0004f06be004f05be004f04be00cf01b1007d
:101cb000000006000400fa00889fbe008a9fbe0054
:101cc0008c1f78000004780001067800f80d900061
:101cd00078009000808555000808900080855500a8
:101ce00018089000808555002808900080855500d0
:101cf0003808900080855500480890008085550080
:101d00000002220090bf9f0000032300a0bf9f009d
:101d1000081090000028a30015003a000b00e00016
:101d2000130034000b0578008a047800e20f550098
:101d30000100360029002000c80190000901780048
:101d4000ee805700580090000300010050049800f6
:101d50000000e0008c00320068089000090040009c
:101d6000600c9800090555004240a900eeff3c00b8
:101d7000780190000200e0000c003400c8019000df
:101d80008c00780058009000030001005004980077
:101d90008080eb000000e0007c003200e80890004a
:101da0007800900000804000600c9800880c900043
:101db0000900e0001100340009057800e28f5400aa
:101dc000010036002a002000c80190000a017800b6
:101dd000ec80570058009000030001005004980068
:101de0000000e00068003200680890000a0040002f
:101df000600c98008a845400edff370018099000a9
:101e00000200e0000c003400c8019000e8009000df
:101e10005800900003000100500498008080eb00ff
:101e20000000e00059003200e80890001808900017
:101e300000804000600c9800a80c90000900e000b1
:101e40001100340009057800e28f540001003600cb
:101e50002a002000c80190000a017800ec80570099
:101e60005800900003000100500498000000e000ba
:101e700045003200680890000a004000600c98009d
:101e80008a845400edff3700380990000200e0001a
:101e90000e003400e8009000180890008080400098
:101ea000c801900058009000030001005004980001
:101eb0008080eb000000e00034003200e808900071
:101ec0003808900000804000600c9800c80c90001a
:101ed0000900e0001100340009057800e28f540089
:101ee000010036002a002000c80190000a01780095
:101ef000ec80570058009000030001005004980047
:101f00000000e00020003200680890000a00400055
:101f1000600c98008a845400edff37000810900090
:101f20008000eb000028a300180032000b00e00046
:101f3000160034008b04780009057800e28f540005
:101f4000010036002a002000c80190000a01780034
:101f5000ee805700580090000300010050049800e4
:101f60000000e00008003200680890000a0040000d
:101f7000600c98008a8454004240a900eeff3c00a7
:101f80008000eb00010037008080eb00010078004a
:101f90004f0678004f05be004f04be000080fa00d7
:101fa000000006000108780000000600e00721009c
:101fb00062003700881f7800e81621001804e0004e
:101fc00003003a00f9ff070020c0b300004c78007e
:101fd0004f04780000000600889fbe0000047800cf
:101fe00008007800b9fc07008004780066800a00c9
:101ff000180000000000e0000200320028009000fd
:102000005a0007000000eb002004980038409000c0
:102010000004e000050035000000fb0013fa070093
:102020000000e000010032008084eb0018109000f6
:102030000000e0000800320057fa07000000e0004e
:10204000010032008084eb00181090004700070068
:102050000000eb0010149800000820001800600039
:10206000150032000001eb006000b800a309210058
:102070000202d00063027a00880f520005003a0085
:102080000000400081804800008041000008eb0013
:102090000600370061004000e08048000201e800cf
:1020a000e80f5000e08f5800f0ff3a000800780079
:1020b0002e0007000e003700000c780000c0eb0077
:1020c000304498006002200008004000200498007e
:1020d0004004980050049800400c98006004980058
:1020e000500c98007004980076004400000c980092
:1020f000090078004f04be0000000600881f780029
:102100000004eb006140b800e2ff2f00f3ff2f0056
:10211000c7000700820a2100620078000000e0008a
:1021200001003200acff07000804e800e80f54008b
:10213000f4ff3a004f047800000006000100200080
:102140000100e00008003200010080000100e00012
:10215000050032008100e900010088008100d00004
:102160000200800000b17800000006000000e000de
:102170002f003200c0017800e38f51002c003600a0
:102180000308a3002a003a00618b80000100e000f0
:1021900002003200810f500004003100110098004d
:1021a000608b8800160037008200780011019000d3
:1021b0000200e00002003200800f5100faff3900f7
:1021c0001102780084824000850f50001800390009
:1021d000808f520003003a0083084200010078001b
:1021e000070037000200e0000300320083014000d6
:1021f000830f51000e0039001200980090009800e3
:10220000900090000100e000090032001001400041
:10221000828f500006003a00a21621000009eb0050
:102220001001780011084100910090001100980001
:1022300000000600889fbe0000047800518b8000db
:102240000100e00002003200010078000d003700bc
:10225000618b8000c016210004003700910f5400ec
:10226000250036000180e800910090000100e000a8
:10227000faff3a0010003700920f54001e0036009b
:102280000280e800100178000200e000faff3a0046
:1022900011017800618b8000c01621000400370016
:1022a000910f5400140036000180e8009100900066
:1022b000828f5000faff3a00898b8000888f54008b
:1022c000010031008804780009007800360007001a
:1022d0000000e00004003a00888f5400050032003e
:1022e0008904d100f5ff3700091878009fff070027
:1022f000d2ff37000000eb004f04be0000000600d4
:10230000881f7800630440000800a1008000eb00f3
:10231000800f540021003600e30f540001003e00fe
:102320004800200008007800c2ff07008000eb0092
:102330000000e00019003200900078009101780060
:1023400064815100880f5100030031001101900099
:102350000208780007003700088140000208780072
:1023600091019000130198001001780011091400e8
:1023700088087800100178000000eb000200e000ff
:1023800004003200920190000300e00001003200de
:102390000280e800508b88008180e800010078000e
:1023a0004f04780000000600800078000000eb0079
:1023b0000100e00005003400010078007ff907000b
:1023c000e10f400001003a000000eb0000000600b1
:1023d00000c0da000000060000c0da0000000600bd
:1023e00000c0da0000000600839f68000100e000e2
:1023f00002003d0060001000e08018000300e000d3
:1024000002003d0060011100e08119008df9070014
:102410004f00e00002003b0060001000e080180068
:102420000000060087f907000400be000000060057
:10243000020ab900001bb9000200b8008100420086
:102440008100430000000600889fbe008a9fbe00f6
:1024500030044200b0844a0030054b0090854b00a8
:102460006000b1000898be000a90be000440e10080
:1024700005c8e10006d0e10007d8e1000200310004
:10248000680040001008e8004f05be004f04be0081
:1024900000000600889fbe008a9fbe003004be0078
:1024a0002005be000418540005985c0006185d0065
:1024b00007985d00110020000440e10005c8e1001c
:1024c00006d0e10007d8e100010039008000eb00f0
:1024d000108810004f05be004f04be00000006002b
:1024e0001200fa00889fbe008a9fbe008c9fbe002b
:1024f000e0b79f00f1b79f0082bf9f0093bf9f008e
:102500000605be000404be000000eb00d0b79f002b
:10251000c0b79f00b0b79f00a0b79f0090b79f00c3
:102520000006eb005fb19700cfb097008201410039
:102530003fb097000200e00004003d0037000700b4
:102540007e805700c0ff07000300370033000700fc
:102550007e805700cfff0700dfb697000d00e00038
:102560000c0035006fb29700ffb297000fbb9700c9
:102570009fbb970010002000010020006011b800f0
:102580000002720081827200020373008383730071
:102590001b0007000c06e80001042000810f560014
:1025a000e0ff3a000d00e00004003d000802be001c
:1025b0000a03be007e805700a3ff07005fa89700b4
:1025c0000000e00005003a001fb29700afb297008c
:1025d0003fb39700cfb39700090007006fb0970093
:1025e000ffb097000fb997009fb997004f06be0044
:1025f0004f05be004f04be000080fa000000060038
:102600000100070000000600a4b79f00b5b79f00b7
:10261000c6b79f00d7b79f00000006004f09de0035
:1026200082817100b3b79f004f01de0081804000be
:1026300082807000a1b79f008fb097004f09de0025
:10264000000040000200700090b79f007fa8970034
:102650004f01de00818040008280700081b79f00c2
:102660000d0007004f3ade0000004000040070003b
:10267000f0af9f00080007000402420085824a0074
:1026800006034b0087834b00dfff07000802be00f4
:102690000a03be00000006002fb29700bfb29700e9
:1026a0004fb39700dfb3970000000600881f780043
:1026b00018002000881f780089ff07008f87e90035
:1026c0004f04780000000600801feb0084ff070025
:1026d0008f87e90000000600889fbe008a9fbe0029
:1026e000e00f5000e08f5800e00f5900e08f5900d4
:1026f0000c003d006044b8006055b8000000540074
:1027000081805c0002015d0083815d001800200073
:102710001500070008003d00180007000004eb004a
:10272000050037000004eb000f00070002003d0029
:102730001200070018002000dcff07000800e0007e
:10274000060032006022b8006033b800000052007a
:1027500081805a0002015b0083815b004f05be004f
:102760004f04be0000000600e00f5200e08f5a0048
:10277000e00f5b00e08f5b00000006006044b800e3
:102780006055b8000402540085825c0006035d00b9
:1027900087835d0000000600889fbe008a9fbe0000
:1027a0008c1f7800e00f5000e08f5800e00f5900b8
:1027b000e08f59000d003d006044b8006055b8003e
:1027c0000000540081805c0002015d0083815d0097
:1027d0001c0020000820e10009a8e1000ab0e10087
:1027e0000bb8e1000d003d00080037000006eb00cb
:1027f000e00f5200e08f5a00e00f5b00e08f5b00bb
:1028000006003d006044b8006055b8000402540062
:1028100085825c0006035d0087835d00aaff0700d8
:102820000c00e000060032006022b8006033b800ff
:102830000000520081805a0002015b0083815b002e
:102840004f0678004f05be004f04be000000060092
:020000040000fa
:102850001b5b0000324a0000001b00005b300000e0
:102860003b300000660000001b5b00003f320000b0
:10287000356c0000002d00002d2d00002d2d0000d6
:102880002d2d00002d2d00002d2d00002d2d0000e0
:102890002d2d00002d2d00002d2d00002d2d0000d0
:1028a0002d2d00002d2d00002d2d00002d2d0000c0
:1028b0002d2d00002d2d00002d2d00002d2d0000b0
:1028c0002d2d00002d2d00002d2d00002d2d0000a0
:1028d0002d2d00002d2d00002d2d00002d2d000090
:1028e0002d2d00002d2d00002d2d00002d2d000080
:1028f0002d2d00002d2d00002d0d000000470000a3
:10290000726f00007570000020430000363a00002e
:10291000204300006f6e0000747200006f6c0000b6
:102920006c65000072200000446500006d6f0000bf
:10293000320d0000005000006f740000656e000052
:10294000746900006f6d000065740000657200001e
:10295000202d0000206300006f6e000074720000e4
:102960006f6c000073200000616300007469000058
:102970007665000020730000746500007070000030
:1029800065720000206d00006f7400006f7200001f
:102990000d0000000d0000001b5b0000393b000033
:1029a0003066000000530000656e0000736f000089
:1029b0007220000031200000566100006c7500009c
:1029c000653a000020250000346400000d0a000074
:1029d00000530000656e0000736f0000722000005d
:1029e00032200000566100006c750000653a00005e
:1029f00020250000346400000d0a00000053000090
:102a0000656e0000736f000072200000332000002c
:102a1000566100006c7500006520000061760000c2
:102a20006572000061670000653a00002025000023
:102a3000346400000d0a000000530000656e0000c1
:102a4000736f000072200000342000005661000007
:102a50006c75000065200000617600006572000062
:102a600061670000653a0000202500003464000022
:102a70000d0a000000530000656e0000736f000037
:102a80007220000035200000566100006c750000c7
:102a9000652000006176000065720000616700003b
:102aa000653a000020250000346400000d0a000093
:042ab0000000000022
:020000040000fa
:102ab4000200fa00000f78001e007800e20f5000b8
:102ac4000e003200e20f500003003e00e10f500000
:102ad4000c0032000d003700e30f500003003200f9
:102ae400e40f5000030032000800370097e3a80009
:102af40006003700cde3a8000400370061e3a80016
:102b0400020037002be3a800000000000080fa0058
:102b1400000006000200fa00000f78001e00780092
:102b2400e20f50000e003200e20f500003003e009e
:102b3400e10f50000c0032000d003700e30f50008d
:102b440003003200e40f5000030032000800370095
:102b540097e3a90006003700cde3a900040037007d
:102b640061e3a900020037002be3a9000000000084
:102b74000080fa00000006000400fa00000f78004c
:102b8400110798001e007800e20f50001000320078
:102b9400e20f500003003e00e10f50000f0032002e
:102ba40011003700e30f500003003200e40f50001f
:102bb400040032000c0037009e009000d11d8800f4
:102bc400090037009e009000811f8800060037002e
:102bd4009e009000211c8800030037009e00900096
:102be400711a8800000000000080fa00000006004e
:102bf4000400fa00000f7800110798001e00780006
:102c0400e20f500010003200e20f500003003e00bb
:102c1400e10f50000f00320011003700e30f5000a5
:102c240003003200e40f5000040032000c003700af
:102c34009e009000f11d8800090037009e0090005e
:102c4400a11f8800060037009e009000411c8800e8
:102c5400030037009e009000911a880000000000d5
:102c64000080fa00000006000400fa00000f78005b
:102c7400110798001e007800e20f50001000320087
:102c8400e20f500003003e00e10f50000f0032003d
:102c940011003700e30f500003003200e40f50002e
:102ca400040032000c0037009e009000c11d880013
:102cb400090037009e009000711f8800060037004d
:102cc4009e009000111c8800030037009e009000b5
:102cd400611a8800000000000080fa00000006006d
:102ce4000600fa00200798006000b800008fbe00bc
:102cf40001003700000000001e00be00610040001b
:102d0400e0804800008fbe002e0090006101b900f1
:102d14001e00be00800f5100818f5900f5ff3a005c
:102d2400000000000080fa00000006000000fa0025
:102d34000cd0bf00614060000004e00013003a00c2
:102d440080322200e6ff0700b0738000610060005b
:102d540000f0a7000000ea000000e9004f00de00d8
:102d6400004078000080fb0061006000b1738000c7
:102d74000100a10001007000b07388000cd0bf00f6
:102d84000004a0000cf0b7001300370080322200ca
:102d9400d3ff0700b07380006200600000f0a7005a
:102da4000000ea000000e9004f00de000040780067
:102db4000080fb006100600000004000b1738000ef
:102dc4000110a10001007000b07388000cd0bf0096
:102dd4000004a1000cf0b7000080fa000000060017
:102de4000000fa000cd0bf000014a0000cf0b700e3
:102df4000080fa00000006000200fa00000f7800cc
:102e04001e0078000000e0000700350010022000da
:102e14009e007800808f500003003c005aeea8000a
:102e24005aaea90023cea900100220009e0078000b
:102e3400808f500007003400200420009e0078009a
:102e4400808f500003003c005aeea9005aaea8003f
:102e540023cea900200420009e007800808f50001b
:102e640007003400400620009e007800808f500048
:102e740003003c005aeea8005aaea90023cea900d4
:102e84000080fa00000006000800fa00000f780035
:102e94001107980022079800330798001e00780055
:102ea400e20f50001a003200e20f500003003e000f
:102eb400e10f50000600320045003700e30f5000d8
:102ec40023003200e40f500031003200400037008c
:102ed4001e0078000fff07002de3a9002dc3a900f1
:102ee4002da3a9009e0090001e00780022ff070079
:102ef400be0090001e0078003dff0700ae00900069
:102f04001e00780058ff070010c0b30031003700de
:102f14001e007800fffe070063e3a90063c3a90055
:102f240063a3a9009e0090001e00780012ff070012
:102f3400be0090001e0078002dff0700ae00900038
:102f44001e00780048ff070010c0b30021003700be
:102f54001e007800effe070099e3a90099c3a900b9
:102f640099a3a9009e0090001e00780002ff0700ac
:102f7400be0090001e0078001dff0700ae00900008
:102f84001e00780038ff070010c0b300110037009e
:102f94001e007800dffe0700cfe3a900cfc3a9001d
:102fa400cfa3a9009e0090001e007800f2fe070047
:102fb400be0090001e0078000dff0700ae009000d8
:102fc4001e00780028ff070010c0b300010037007e
:102fd4000040eb000080fa00000006000200fa0046
:102fe400000f78001e007800e20f50000e0032003f
:102ff400e20f500003003e00e10f500006003200d3
:1030040015003700e30f50000b003200e40f5000ae
:103014000d003200100037002100200043210a0077
:103024002a0300000c0037002100200043210a007d
:1030340060030000080037002100200043210a003b
:1030440096030000040037002100200043210a00f9
:10305400cc030000000000000080fa00000006001d
:103064000200fa00000f78001e007800004078008b
:10307400634060000000780054200a000003000050
:103084000080fa00000006000400fa003300070084
:103094000000eb00000f78000000eb001007980020
:1030a400711a8000010f7800211c8000110798001c
:1030b4009e009000711a88009e007800211c8800f0
:1030c400d11d8000010f7800811f80001107980036
:1030d4009e009000d11d88009e007800811f88000a
:1030e400c11d8000010f7800711f80001107980036
:1030f4009e009000c11d88009e007800711f88000a
:10310400111c8000010f7800611a800011079800db
:103114009e009000111c88009e007800611a8800af
:103124002200070044a00a000c1000000004a200c2
:1031340061406000e1406000400020000008dd00c4
:10314400c1002100914078000144a10000c070003a
:103154000cf0b7000080fa00000006000800fa0036
:1031640010002000000f78002000200010079800b5
:10317400300020002007980040002000300798000d
:103184001e00780063fe07001e00900061fe070029
:103194002e0090005ffe07003e0090005dfe0700d9
:1031a4000cd0a9000080fa00000006000800fa0014
:1031b40010002000000f7800200020001007980065
:1031c40030002000200798004000200030079800bd
:1031d4001e00780036fe07001e00900034fe070033
:1031e4002e00900032fe07003e00900030fe0700e3
:1031f4000cd0a8000080fa00000006000000fa00cd
:1032040033a00a00760e00000004a20061406000b2
:103214000080fb00610060004300dd00b1738000aa
:103224000130a10001007000b07388000080fa0032
:10323400000006000000fa000cd0bf000044b200f9
:103244000004e0001b00320000808000f00f5000fa
:1032540015003a000030ef00108080000000e80004
:10326400108088000cd0bf00704060000004e000b3
:1032740004003a00308080000000e80030808800bc
:10328400070037000cd0bf00704060000004e0006d
:1032940003003200308080000000e90030808800a4
:1032a4000600070003003700008080000000e800eb
:1032b400008088000080fa00000006000000fa0088
:1032c4001180800020808000808f5000020039002f
:1032d4000230ef00a1ff07000080fa0000000600a2
:1032e4000000fa002180800050808000808f500010
:1032f400350032005180800030808000808f500083
:10330400170036000cd0bf00704060000004e000dd
:10331400010032005cff0700518080004080800083
:103324000080500020808800318080002080800050
:10333400270007000004a2000004e000220032007d
:103344000cd0bf000044b2000004e0001e003a00ac
:1033540096ff070030808000408088001a00370004
:103364005180800030808000808f50001600310032
:103374000cd0bf00704060000004e00001003a007f
:1033840041ff070041808000508080000080500091
:103394002080880031808000208080000c0007009d
:1033a4000004a2000004e000070032000cd0bf00bb
:1033b4000044b2000004e00003003a007bff070071
:1033c40030808000408088000080fa000000060001
:1033d4000400fa00000f7800110798001e0178001d
:1033e400ea0041001e009000808f50000700390061
:1033f4001e017800ea0051001e009000808f5000ea
:1034040002003e0010c0b300060037001e00780022
:103414000000e00002003a0010c0b30001003700d1
:103424000040eb000080fa00000006000200fa00f1
:10343400000f78001e007800e20f50000d003200eb
:10344400e30f500014003200e10f50001b003a005b
:10345400a1738000000820000080600000f0a70035
:103464000000ea000000e9004f00de0000407800a0
:1034740013003700a173800000102000008060005a
:1034840000f0a7000000ea000000e9004f00de00a1
:10349400004078000a003700a1738000002020005b
:1034a4000080600000f0a7000000ea000000e900ce
:1034b4004f00de0000407800010037000040eb00c0
:1034c4000080fa00000006000200fa00000f7800f5
:1034d4001e007800e20f500006003200e30f500097
:1034e40006003200e10f500007003a0072eea80017
:1034f40006003700730ea80004003700732ea800de
:103504000000000001003700000000000080fa0005
:10351400000006000400fa00100798000040eb00c9
:10352400004f7800110037001e80fb006a00b900cc
:1035340080007800a00a21000080400090007800fc
:103544001e009000808f500007003a001e80fb0090
:103554006a00b90080007800a00a210000804000c1
:103564008000eb00010878001e4fe8001e40780040
:10357400e94f5000ecff36000080fa00000006001e
:103584000800fa00100798002207980033079800f3
:103594000dd0bf000004a2000004e00002003200cd
:1035a4000040eb00280037000040eb00004f78009b
:1035b400210037001e80fb006a00b90080007800fb
:1035c400a00a210000804000100078000000e00004
:1035d40018003a001e80fb006a00b90080007800e1
:1035e400a00a2100008040009e009000010878009d
:1035f4001e80fb006a00b90080007800c00a210028
:10360400008040002e019000be0190000288be00a0
:103614001e80fb006a00b90080007800000b2100c6
:10362400008140006000b8000089be0010c0b300f3
:10363400050037001e4fe8001e407800e94f500097
:10364400dcff36000040eb000080fa0000000600ba
:103654000200fa00000f78001e0078000000e0006d
:1036640003003200e10f50001c0032001f0037003d
:1036740001e1a9002028a900420620008000eb00f7
:10368400a00a2100fef407000028a9004100200040
:1036940064210a00400800000421ef00703e20006d
:1036a400400888003100200098210a000001000031
:1036b4000021a8000041a9001100200054210a00a3
:1036c4000001000001e1a8002028a80010c0b300f8
:1036d4000df0b70010c0b300050037002028a90082
:1036e4000d70ef0010c0b300010037000040eb0084
:1036f4000080fa00000006000400fa001007980099
:103704001e009000e50f50000f003200e50f50003e
:1037140005003e000000e0000d003200e40f500000
:103724000d00320006003700e80f50000c00320094
:10373400e90f50000c003200e70f50000c0032007b
:1037440000c0eb001800370000000000090037003b
:1037540000000000070037000000000005003700eb
:1037640000000000030037000000000001003700e3
:10377400000000001e0090000d000700d1cc2c00ba
:103784000100b8004308de00004f780040c6b300d3
:103794009e40780080cf50000200360040c6b3003f
:1037a400004f78001e4078000080fa0000000600f8
:1037b4000200fa00000f78001e00780003000700e2
:1037c4004200de000080fa00000006000600fa0055
:1037d400200798002e009000000040008000780030
:1037e400c0c02000008f40004158800000e02f003e
:1037f400808060002e009000010070004058880016
:10380400090ba8002e009000ef0f50000b003e00a3
:103814002e009000110020000008dd001007980021
:1038240000000000815980001e00900000806000ac
:103834000000e000fbff32000b0037002e00900078
:1038440070005000110020000008dd0010079800ef
:1038540000000000915980001e009000008060006c
:103864000000e000fbff32001e007800100078002a
:103874000080fa00000006000a00fa0030079800f1
:10388400410798006000b800008fbe000000eb0004
:1038940020079800080037003e009000cbff070087
:1038a4008000eb001e0f40005e9748002e00900041
:1038b4000000e80020079800ae0090004e00900041
:1038c400808f5000f4ff39002e0090000000e000cb
:1038d4000c0032002e0090000000d1008000eb00ac
:1038e4003e024000ae8248002e0090008000eb00b3
:1038f4000001be000400be0051f40700000078007f
:10390400010037000000eb000080fa000000060010
:103914000200fa00000f78001e007800e50f500046
:1039240014003200e50f500005003e000000e000e6
:103934000a003200e40f50000b0032001900370077
:10394400e80f500011003200e90f5000120032005d
:10395400e70f50000a00320012003700000ea800e2
:1039640010c0b30010003700008ea80010c0b300d0
:103974000d0037001c0ea80010c0b3000a00370069
:103984001c4ea80010c0b300070037001c6ea8002e
:1039940010c0b300040037001ceea80010c0b30030
:1039a400010037000040eb000080fa000000060030
:1039b4000200fa00000f78001e0078000000e0000a
:1039c40016003a00002bef00000620001058880073
:1039d400042bef000003200030588800082bef0070
:1039e400000820005058880000082000006088006b
:1039f40000f020001060880001eba8000000000027
:103a04000160800000002800008060000000e000e9
:103a1400fbff320010c0b300010037000040eb0090
:103a24000080fa00000006000e00fa00db02070026
:103a34000c70ef000000eb00000f78001000200075
:103a4400a1fe07000000eb0001ff07000000eb00ef
:103a5400d7ff07000000eb00adff07004000200087
:103a6400abff070050002000a9ff070070002000f2
:103a7400a7ff070080002000a5ff0700900020009a
:103a8400a3ff07005000200010079800400020000a
:103a94002007980030002000300798002000200004
:103aa40040079800100020005007980010002000e4
:103ab400600798006e00900069fd070003ff2f0067
:103ac40042ff2b00f1fe2f001e009000eefc0700c9
:103ad4001e00900041fd070003ff2f0042ff2b0052
:103ae400f1fe2f002e009000e7fc07002e0090004e
:103af4003afd070003ff2f0082ff270041ff2b0040
:103b04003e009000e0fc07003e00900033fd0700fb
:103b140003ff2f00c2ff230081ff27004e00900007
:103b2400d9fc07004e0090002cfd070003ff2f0076
:103b34000001eb0081ff27005e009000d2fc07002b
:103b44005e00900025fd07005e009000d8fb070092
:103b54004e009000d6fb07003e009000d4fb070007
:103b64002e009000d2fb07001e009000d0fb07003f
:103b74007afd070080422900801f780006f40700c0
:103b84008f87e900d0422900801f780002f40700e3
:103b94008f87e90040432900801f7800fef3070067
:103ba4008f87e900b0432900bcf30700f0472900e0
:103bb400baf30700b0432900b8f30700b04929005d
:103bc400b6f30700a04c2900b4f30700400020001e
:103bd400fefe070080808800410120004000200094
:103be40025ff0700a080880040002000c2fe0700d7
:103bf4000080fb009080880050002000f3fe070046
:103c0400b080880050002000bbfe07000080fb004d
:103c1400c080880070002000ecfe0700d08088007f
:103c240080002000e9fe0700e0808800900020006a
:103c3400e6fe0700f0808800c04c2900801f780051
:103c4400d5f307008f87e90080808000801f78000b
:103c5400304d2900801f7800cff30700e487570018
:103c6400b0808000801f7800904e2900801f78006b
:103c7400c9f30700e4875700d0808000801f7800d4
:103c8400f04f2900801f7800c3f30700e487570032
:103c9400e0808000801f7800d0512900801f7800c8
:103ca400bdf30700e4875700f0808000801f780090
:103cb400b0532900801f7800b7f30700e48757004a
:103cc400a04c290075f3070010002000d7fd070061
:103cd4000004e00020003200801a260000fc0700e7
:103ce40010002000d1fd070061406000e140600049
:103cf400200020000008dd00c10021009140780070
:103d04000124a10000c070000cf0b7000cd0bf006b
:103d1400644060000080fb000000ea004f00de0009
:103d240000407800e1406000300020000008dd0021
:103d3400c1002100914078000134a10000c070004e
:103d44000cf0b7000cd0bf00684060000004e00035
:103d540001003a000c50a9000000eb0066fe0700c9
:103d64000080fb00000f78001e00780022fc070092
:103d740096ff37000000fa000023ef000223ef0053
:103d84000423ef000623ef00f0ff20004018880012
:103d940040052d00501888000c23ef000e23ef007f
:103da4001023ef001223ef001423ef001623ef007b
:103db4001823ef001a23ef001c23ef001e23ef004b
:103dc4002023ef002223ef002423ef002623ef001b
:103dd4002823ef0000002c00c01c880000002c00e9
:103de400701e880000002c00101b880000002c00ae
:103df400601988009a23ef00d023ef009c23ef0082
:103e0400d223ef00c0002000f01c8800c000200076
:103e1400a01e8800c0002000401b8800c0002000b5
:103e240090198800a023ef00d623ef00a223ef000f
:103e3400d823ef00a423ef00da23ef00a623ef003a
:103e4400dc23ef00a823ef00de23ef00aa23ef001a
:103e5400e023ef00ac23ef00e223ef00ae23ef00fa
:103e6400e423ef00b023ef00e623ef00b223ef00da
:103e7400e823ef00b423ef00ea23ef00b623ef00ba
:103e8400ec23ef00b823ef00ee23ef00ba23ef009a
:103e9400f023ef00bc23ef00f223ef000001200029
:103ea400f01d880000012000401c88000001200053
:103eb400901a880000012000a01f8800c023ef0092
:103ec400f623ef00c223ef00f823ef00c423ef0032
:103ed400fa23ef00c623ef00fc23ef00c823ef0012
:103ee400fe23ef0080002800b01c8800800028001a
:103ef400601e880080002800001b880080002800c5
:103f0400501988000080fa00000006000000fa0042
:103f14000080fa00000006000000fa004040800023
:103f2400680060000000e00002003200f7ff0700b4
:103f34000868a9000080fa00000006000000fa00ea
:103f44000080fa00000006000000fa0040408000f3
:103f5400700060000000e00002003200f7ff07007c
:103f64000888a9000080fa00000006000000fa009a
:103f74000080fa00000006000000fa0041408000c2
:103f840000022000008060000000e0000200320017
:103f9400f6ff070008a8a9000080fa000000060048
:103fa4000000fa000080fa00000006000000fa0099
:103fb4004140800000042000008060000000e00018
:103fc40002003200f6ff070008c8a9000080fa00ca
:103fd400000006000000fa000080fa00000006005d
:103fe4000000fa00a1408000002020000080600052
:103ff4000000e00002003200f6ff07001528a900c7
:104004000080fa00000006000000fa000080fa00b8
:10401400000006000000fa00a140800000402000db
:10402400008060000000e00002003200f6ff07009c
:104034001548a9000080fa00000006000000fa00fc
:104044000080fa00000006000000fa00a140800091
:1040540000802000008060000000e00002003200c8
:10406400f6ff07001568a9000080fa0000000600aa
:104074000000fa000080fa00000006000000fa00c8
:10408400a140800000002100008060000000e000ea
:1040940002003200f6ff07001588a9000080fa002c
:1040a400000006000000fa000080fa00000006008c
:1040b4000000fa00a140800000002200008060009f
:1040c4000000e00002003200f6ff070015a8a90076
:1040d4000080fa00000006000000fa000080fa00e8
:1040e400000006000000fa00a14080000000240047
:1040f400008060000000e00002003200f6ff0700cc
:1041040015c8a9000080fa00000006000000fa00ab
:10411400007c80000080fa00000006000200fa0023
:10412400faff0700000f78001e0078002400070043
:104134000004e000020032000000280071000700c3
:104144001e0078002a0007000004e000020032008c
:10415400000024006b0007001e00780032000700f6
:104164000004e00002003200002020006500070087
:104174001e0078003a0007000004e000020032004c
:10418400000820005f0007001e00780042000700be
:104194000004e0000200320000042000590007007f
:1041a4001e0078004a0007000004e000020032000c
:1041b40000012000530007000080fa000000060000
:1041c4000400fa00100798000040eb00004f78004c
:1041d4001e0090000000e00002003d0010c0b3008b
:1041e400004f78001e4078000080fa0000000600ae
:1041f4000400fa00100798000040eb00004f78001c
:104204009e00900000002400008060000000e00098
:104214000200320010c0b300004f78001e40780046
:104224000080fa00000006000400fa00100798005d
:104234000040eb00004f78009e009000002020001a
:10424400008060000000e0000200320010c0b300f3
:10425400004f78001e4078000080fa00000006003d
:104264000400fa00100798000040eb00004f7800ab
:104274009e00900000082000008060000000e00024
:104284000200320010c0b300004f78001e407800d6
:104294000080fa00000006000400fa0010079800ed
:1042a4000040eb00004f78009e00900000042000c6
:1042b400008060000000e0000200320010c0b30083
:1042c400004f78001e4078000080fa0000000600cd
:1042d4000400fa00100798000040eb00004f78003b
:1042e4001e009000700060000000e0000200320038
:1042f40010c0b300004f78001e4078000080fa0020
:10430400000006000200fa00000f78009e80ea0018
:10431400007c800000806000007c88000080fa003f
:10432400000006000000fa00802fef000080fa0071
:04433400000006007f
:020000040000fa
:104338003011000020000000800000002010000064
:104348000200000082000000ffff0000aa10000029
:104358006400000080000000001000002000000041
:104368008000000022100000880000008200000089
:1043780001000000004810004910480010481000d3
:10438800481048001038100000000000000000002d
:104398000000000000000000000000000000000015
:1043a80000000000000208000101700010711000f8
:1043b8007010700010701000701060001000000085
:1043c80000000000000000000000000000000000e5
:1043d80000000000000000000000020008020200c7
:1043e80098109900109810009810980010981000d4
:1043f800881000000000000000000000000000001d
:1044080000000000000000000000000000000000a4
:1044180022104a0010721000000000000000000086
:104428000000000000000000501100001a00000009
:1044380082000000686a6c00747a4c000000010079
:104448000002000004000800001000000000200026
:104458002b2d2300300000000e1100002200000068
:1044680082000000303132003334350036373800ee
:1044780039414200434445004600300031323300a0
:104488003435360037383900616263006465660088
:10449800000000006e110000020000008000000013
:1044a80070110000020000008200000004000000fb
:1044b8006a11000004000000800000007211000072
:1044c80002000000820000000100000074110000da
:0c44d80002000000800000000000000056
:020000040000fa
:1044e4000200fa00000f780021028000200f200053
:1044f400008060001e007000200288000080fa0026
:10450400000006000000fa00c3e8a8000000000054
:10451400000000000080fa00000006000400fa0019
:1045240039e2a80038e2a80038a2a8008000eb0015
:1045340030210a00380200008000eb0054210a00f8
:104544003a0200007006200001002000008fbe0027
:104554001e007800001288001e00be004008de0025
:1045640000007800101288000080fa0000000600a5
:104574000200fa00004f780000000000f0118000f3
:10458400700060000000e000fcff3a001e80fb00a9
:10459400401288000080fa00000006000000fa00c3
:1045a400220007005500070091000700d5ff07000f
:1045b40000022000caff0700eefd0700d7ff070036
:1045c400720ea900722ea9001fcea90072eea800d7
:1045d40056eea90056aea900572ea90023cea90075
:1045e400760ea900762ea9005aeea9005aaea900ab
:1045f4005b2ea900004180000010a000004188004b
:104604000142800000072000010070000042880081
:1046140011002000d8210a009a0d0000a0c3b300a5
:1046240028edb7000080fa00000006000000fa0040
:10463400062eef00222eef003e2eef005a2eef0042
:10464400762eef00f001200010708800d0ff2c00bf
:10465400f070880030ff2c00d07188000080eb00df
:10466400b07288000080eb00907388000c2eef007d
:10467400282eef00442eef00602eef007c2eef007a
:104684000a2eef00262eef00422eef005e2eef00e2
:104694007a2eef00082eef00242eef00402eef00bc
:1046a4005c2eef00782eef00f001200000708800ef
:1046b400d0082000e0708800f0082000c071880055
:1046c40000402000a07288001f6ea9001f4ea900a0
:1046d4003a8ea9003b4ea9001eeea900726ea900f5
:1046e400736ea800024ea8001e4ea8001e6ea800fd
:1046f4001eeea8000080fa00000006000000fa0088
:1047040010002300307c880060092000407c880071
:104714008c2fef0010042000507c88001010200023
:10472400707c880060092000807c880010042000d0
:10473400907c88009a2fef00b82fef00ba2fef007b
:10474400002def00a42fef00a62fef00a82fef00fd
:10475400aa2fef00ae2fef00b02fef00b22fef0023
:104764000001eb00600420007105200043f82000e4
:104774008049780081497800824978000080fa00f5
:10478400000006000000fa00dcff07000080fa00c9
:10479400000006000000fa00007c80000080fa009f
:1047a400000006000000fa005cfe07000080fa002a
:1047b400000006000000fa00dafe07000080fa009c
:1047c40000000600000f78009e0078000181880038
:1047d400ffff37000000fa00001321008007780073
:1047e40080142100000188000080fa000000060007
:0c47f4000000fa000080fa00000006003f
:020000040000fa
:020000040002f8
:04be0000ffff000040
:020000040000fa
:020000040002f8
:04be2000ffffff0021
:020000040000fa
:020000040002f8
:04be3000ffffff0011
:020000040000fa
:020000040002f8
:04be3800bfffff0049
:020000040000fa
:020000040002f8
:04be40007453ff0038
:020000040000fa
:020000040002f8
:04be5000dfffff0011
:020000040000fa
:020000040002f8
:04be58000000ff00e7
:020000040000fa
:020000040002f8
:04be60000000ff00df
:020000040000fa
:020000040002f8
:04be68000000ff00d7
:020000040000fa
:020000040002f8
:04be70000000ff00cf
:020000040000fa
:020000040002f8
:04be7800ffffff00c9
:020000040000fa
:020000040002f8
:04be8000ffffff00c1
:020000040000fa
:020000040002f8
:04be8800ffffff00b9
:020000040000fa
:020000040002f8
:04beb000ffffff0091
:020000040000fa
:020000040002f8
:04bec000ffffff0081
:020000040000fa
:020000040002f8
:04bed000ffffff0071
:020000040000fa
:020000040002f8
:04bee000ffffff0061
:020000040000fa
:020000040002f8
:04bef000ffffff0051
:00000001FF
