:020000040000fa
:080000000002040000000000f2
:020000040000fa
:0400080050030000a1
:020000040000fa
:04000c00620300008b
:020000040000fa
:040010007203000077
:020000040000fa
:04001400580300008d
:020000040000fa
:040018006a03000077
:020000040000fa
:04001c0026040000b6
:020000040000fa
:040020007a0300005f
:020000040000fa
:0400240026040000ae
:020000040000fa
:0400280026040000aa
:020000040000fa
:04002c00820300004b
:020000040000fa
:0400300026040000a2
:020000040000fa
:04003400260400009e
:020000040000fa
:04003800260400009a
:020000040000fa
:04003c002604000096
:020000040000fa
:040040002604000092
:020000040000fa
:04004400260400008e
:020000040000fa
:04004800260400008a
:020000040000fa
:04004c002604000086
:020000040000fa
:040050002604000082
:020000040000fa
:04005400260400007e
:020000040000fa
:04005800260400007a
:020000040000fa
:04005c002604000076
:020000040000fa
:040060002604000072
:020000040000fa
:04006400260400006e
:020000040000fa
:04006800260400006a
:020000040000fa
:04006c002604000066
:020000040000fa
:040070002604000062
:020000040000fa
:04007400260400005e
:020000040000fa
:04007800260400005a
:020000040000fa
:04007c002604000056
:020000040000fa
:040080002604000052
:020000040000fa
:04008400260400004e
:020000040000fa
:04008800260400004a
:020000040000fa
:04008c002604000046
:020000040000fa
:040090002604000042
:020000040000fa
:04009400260400003e
:020000040000fa
:04009800260400003a
:020000040000fa
:04009c002604000036
:020000040000fa
:0400a0002604000032
:020000040000fa
:0400a400260400002e
:020000040000fa
:0400a800260400002a
:020000040000fa
:0400ac002604000026
:020000040000fa
:0400b0002604000022
:020000040000fa
:0400b400260400001e
:020000040000fa
:0400b800260400001a
:020000040000fa
:0400bc002604000016
:020000040000fa
:0400c0002604000012
:020000040000fa
:0400c400260400000e
:020000040000fa
:0400c800260400000a
:020000040000fa
:0400cc002604000006
:020000040000fa
:0400d0002604000002
:020000040000fa
:0400d40026040000fe
:020000040000fa
:0400d80026040000fa
:020000040000fa
:0400dc0026040000f6
:020000040000fa
:0400e00026040000f2
:020000040000fa
:0400e40026040000ee
:020000040000fa
:0400e80026040000ea
:020000040000fa
:0400ec0026040000e6
:020000040000fa
:0400f00026040000e2
:020000040000fa
:0400f40026040000de
:020000040000fa
:0400f80026040000da
:020000040000fa
:0400fc0026040000d6
:020000040000fa
:0401000026040000d1
:020000040000fa
:0401040026040000cd
:020000040000fa
:0401080026040000c9
:020000040000fa
:04010c0026040000c5
:020000040000fa
:0401100026040000c1
:020000040000fa
:0401140026040000bd
:020000040000fa
:0401180026040000b9
:020000040000fa
:04011c0026040000b5
:020000040000fa
:0401200026040000b1
:020000040000fa
:0401240026040000ad
:020000040000fa
:0401280026040000a9
:020000040000fa
:04012c0026040000a5
:020000040000fa
:0401300026040000a1
:020000040000fa
:04013400260400009d
:020000040000fa
:040138002604000099
:020000040000fa
:04013c002604000095
:020000040000fa
:040140002604000091
:020000040000fa
:04014400260400008d
:020000040000fa
:040148002604000089
:020000040000fa
:04014c002604000085
:020000040000fa
:040150002604000081
:020000040000fa
:04015400260400007d
:020000040000fa
:040158002604000079
:020000040000fa
:04015c002604000075
:020000040000fa
:040160002604000071
:020000040000fa
:04016400260400006d
:020000040000fa
:040168002604000069
:020000040000fa
:04016c002604000065
:020000040000fa
:040170002604000061
:020000040000fa
:04017400260400005d
:020000040000fa
:040178002604000059
:020000040000fa
:04017c002604000055
:020000040000fa
:040180002604000051
:020000040000fa
:04018400260400004d
:020000040000fa
:040188002604000049
:020000040000fa
:04018c002604000045
:020000040000fa
:040190002604000041
:020000040000fa
:04019400260400003d
:020000040000fa
:040198002604000039
:020000040000fa
:04019c002604000035
:020000040000fa
:0401a0002604000031
:020000040000fa
:0401a400260400002d
:020000040000fa
:0401a8002604000029
:020000040000fa
:0401ac002604000025
:020000040000fa
:0401b0002604000021
:020000040000fa
:0401b400260400001d
:020000040000fa
:0401b8002604000019
:020000040000fa
:0401bc002604000015
:020000040000fa
:0401c0002604000011
:020000040000fa
:0401c400260400000d
:020000040000fa
:0401c8002604000009
:020000040000fa
:0401cc002604000005
:020000040000fa
:0401d0002604000001
:020000040000fa
:0401d40026040000fd
:020000040000fa
:0401d80026040000f9
:020000040000fa
:0401dc0026040000f5
:020000040000fa
:0401e00026040000f1
:020000040000fa
:0401e40026040000ed
:020000040000fa
:0401e80026040000e9
:020000040000fa
:0401ec0026040000e5
:020000040000fa
:0401f00026040000e1
:020000040000fa
:0401f40026040000dd
:020000040000fa
:0401f80026040000d9
:020000040000fa
:0401fc0026040000d5
:020000040000fa
:0402000026040000d0
:020000040000fa
:0402040026040000cc
:020000040000fa
:0402080026040000c8
:020000040000fa
:04020c0026040000c4
:020000040000fa
:0402100026040000c0
:020000040000fa
:0402140026040000bc
:020000040000fa
:0402180026040000b8
:020000040000fa
:04021c0026040000b4
:020000040000fa
:0402200026040000b0
:020000040000fa
:0402240026040000ac
:020000040000fa
:0402280026040000a8
:020000040000fa
:04022c0026040000a4
:020000040000fa
:0402300026040000a0
:020000040000fa
:04023400260400009c
:020000040000fa
:040238002604000098
:020000040000fa
:04023c002604000094
:020000040000fa
:040240002604000090
:020000040000fa
:04024400260400008c
:020000040000fa
:040248002604000088
:020000040000fa
:04024c002604000084
:020000040000fa
:040250002604000080
:020000040000fa
:04025400260400007c
:020000040000fa
:040258002604000078
:020000040000fa
:04025c002604000074
:020000040000fa
:040260002604000070
:020000040000fa
:04026400260400006c
:020000040000fa
:040268002604000068
:020000040000fa
:04026c002604000064
:020000040000fa
:040270002604000060
:020000040000fa
:04027400260400005c
:020000040000fa
:040278002604000058
:020000040000fa
:04027c002604000054
:020000040000fa
:040280002604000050
:020000040000fa
:04028400260400004c
:020000040000fa
:040288002604000048
:020000040000fa
:04028c002604000044
:020000040000fa
:040290002604000040
:020000040000fa
:04029400260400003c
:020000040000fa
:040298002604000038
:020000040000fa
:04029c002604000034
:020000040000fa
:0402a0002604000030
:020000040000fa
:0402a400260400002c
:020000040000fa
:0402a8002604000028
:020000040000fa
:0402ac002604000024
:020000040000fa
:0402b0002604000020
:020000040000fa
:0402b400260400001c
:020000040000fa
:0402b8002604000018
:020000040000fa
:0402bc002604000014
:020000040000fa
:0402c0002604000010
:020000040000fa
:0402c400260400000c
:020000040000fa
:0402c8002604000008
:020000040000fa
:0402cc002604000004
:020000040000fa
:0402d0002604000000
:020000040000fa
:0402d40026040000fc
:020000040000fa
:0402d80026040000f8
:020000040000fa
:0402dc0026040000f4
:020000040000fa
:0402e00026040000f0
:020000040000fa
:0402e40026040000ec
:020000040000fa
:0402e80026040000e8
:020000040000fa
:0402ec0026040000e4
:020000040000fa
:0402f00026040000e0
:020000040000fa
:0402f40026040000dc
:020000040000fa
:0402f80026040000d8
:020000040000fa
:0402fc0026040000d4
:020000040000fa
:0403000026040000cf
:020000040000fa
:0403040026040000cb
:020000040000fa
:0403080026040000c7
:020000040000fa
:04030c0026040000c3
:020000040000fa
:0403100026040000bf
:020000040000fa
:0403140026040000bb
:020000040000fa
:0403180026040000b7
:020000040000fa
:04031c0026040000b3
:020000040000fa
:0403200026040000af
:020000040000fa
:10040000af0821000eff24000e018800000020002c
:100410000000e000020032000001200020028800fd
:10042000140007000b0107000000e00003003a0081
:10043000e0cf200001002000020037000000200073
:1004400001002000810f70004220ae000f00070065
:10045000000020000000e0004220ae00000002008a
:100460000000000058080200000000000040da0010
:100470000000fe00200020000000e000020032002a
:10048000100020009001880000000600a1028800f2
:10049000800478000000eb001f003700e284440075
:1004a00054a0b4009905ba00e284440054a0b400fa
:1004b0009906ba00e284440054a0b4000006eb00a0
:1004c000476fde00fd07b200ae018800636ce100fb
:1004d00003003a000ad801000000eb000e003700cc
:1004e000606ce10008003a00004deb000a05e800ee
:1004f000020039003420ec000af0a0008b05e9006e
:10050000f9ff3e00040037006168e100010032009d
:100510000086eb000b00070019c7ba001905ba00e6
:100520000e04e00003003a000a00e000dbff3a009e
:1005300000000600fe07b200ae0288008a047800c0
:10054000f5ff37000cd0a300e20f4d001c0039006e
:1005500089027800354dba000a05e800020039002a
:100560003420ec000af0a0008b05e9000f003200f7
:10057000254dba000a05e800020039003420ec00dd
:100580000af0a0008b05e900080032000c00e00032
:100590000600320015cdba000a05e8000200390055
:1005a0003420ec000af0a0008b05e9008984e80003
:1005b00054a0b4000b00e000e2ff3a000000060087
:1005c0009902ba00055d78008b05e900f7ff32005b
:1005d000c82ade00055d78008b05e900f3ff3200d4
:1005e0000c00e000f1ff320019ddba00eeff370029
:1005f0006100e10001003200100005003200f80047
:100600003400f8000002be00930188003200be00f2
:100610000100e0000700320032037800c733de003b
:10062000a7018800f607b2007f30e1000400320025
:10063000200020003400f9003200f900000006001c
:100640008100e9000500e00003003a000180090094
:1006500032100300edff37000180090032900300e3
:10066000d561ae00e9ff370030002000f1ff370010
:1006700050052000b00e8800a00a2000b00e8800af
:10068000d3e1a8000000060050052000b00e88004d
:10069000a00a2000b00e8800d3e1a90000000600e7
:1006a0003600f800c028a9000000eb00e1040700b4
:1006b0003600f800e3040700c048a900100020003d
:1006c000dc0407003600f800c068a9002000200004
:1006d000d80407003600f800c088a90030002000c8
:1006e000d40407003600f800c608a90070002000f6
:1006f000d00407003600f800c408a900b0002000ac
:10070000cc0407003600f800809fbe00829fbe0028
:10071000849fbe00869fbe003200f8003400f800bf
:1007200010002000a0018800100020009001880027
:100730000200fa000040eb00004f7800360037005e
:100740001e80fb006a00b900800078006000210074
:1007500000804000100078000000e0002d00320012
:100760001e81fb006a10b90000007800e60040001e
:1007700060002100008040001000be0061004000c9
:10078000e08048006a11b90082017800c2002100af
:10079000028141000089be001e80fb006a00b90092
:1007a00000007800e600400060002100008040006a
:1007b0001001be001e80fb006a00b9000000780036
:1007c0008080e80060002100008040001000be0032
:1007d000800f5100818f59000e003a001e80fb00ef
:1007e0006a00b900800078006000210000804000ad
:1007f00010007800000001001e80fb006a00b900b4
:1008000080007800c0002100008140006000b80036
:100810000089be001e4fe8001e407800e94f5000de
:10082000c7ff36000028a9000080fa003400f90054
:100830003200f9004f03be004f02be004f01be0060
:100840004f00be003600f900004006000040da000c
:100850000000fe00000005006022b8000602200033
:100860000000d0008180d2000482d2008582d200b4
:100870000000a0000202520083825a0003003100ef
:100880000202420083824a000000a1000603e90040
:10089000f3ff3a00000006008001780002003700f4
:1008a000815978000201e9000200e000fcff3a00f3
:0408b000000006003e
:020000040000fa
:1008b4000200fa00000f78001e007800e30f5000d9
:1008c40003003200e40f500003003200040037003c
:1008d40097e3a80002003700cde3a8000000000061
:1008e4000080fa00000006000200fa00000f780001
:1008f4001e007800e30f500003003200e40f5000a4
:10090400030032000400370097e3a9000200370017
:10091400cde3a900000000000080fa0000000600fa
:100924000400fa00000f7800110798001e007800f8
:10093400e30f500003003200e40f500004003200c3
:10094400060037009e009000d11d88000300370088
:100954009e009000811f8800000000000080fa00c3
:10096400000006000400fa00000f78001107980048
:100974001e007800e30f500003003200e40f500023
:1009840004003200060037009e009000f11d88002c
:10099400030037009e009000a11f880000000000a3
:1009a4000080fa00000006000600fa002007980004
:1009b4006000b800008fbe00010037000000000096
:1009c4001e00be0061004000e0804800008fbe00b1
:1009d4002e0090006101b9001e00be00800f51007e
:1009e400818f5900f5ff3a00000000000080fa00f2
:1009f400000006000200fa00000f78001e007800d4
:100a040010407800614060000004e00016003a00e5
:100a140080322200e4ff0700b073800061006000b0
:100a240000f0a7000000ea000000e9004f00de002b
:100a3400004078000080fb0061006000b17380001a
:100a44000100a10001007000b07388001e0078004e
:100a540010407800804078000104a0001e00780057
:100a6400014878001600370080322200ceff0700cc
:100a7400b07380006200600000f0a7000000ea008c
:100a84000000e9004f00de00004078000080fb0019
:100a94006100600000004000b17380000110a100fb
:100aa40001007000b07388001e00780010407800c8
:100ab400804078000104a1001e00780001487800fd
:100ac4000080fa00000006000200fa00000f78001f
:100ad4001e00780010407800804078000114a000c7
:100ae4001e007800014878000080fa00000006002b
:100af4000200fa00000f78001e0078000000e000f9
:100b040007003500100220009e007800808f5000fe
:100b140003003c005aeea8005aaea90023cea90057
:100b2400100220009e007800808f500007003400df
:100b3400200420009e007800808f500003003c00b9
:100b44005aeea9005aaea80023cea9002004200022
:100b54009e007800808f500007003400400620007b
:100b64009e007800808f500003003c005aeea800dd
:100b74005aaea90023cea9000080fa0000000600a6
:100b84000200fa00000f78001e007800e20f500007
:100b94000d003200e30f500014003200e10f50004a
:100ba4001b003a00a1738000000820000080600050
:100bb40000f0a7000000ea000000e9004f00de009a
:100bc4000040780013003700a1738000001020005b
:100bd4000080600000f0a7000000ea000000e900c7
:100be4004f00de00004078000a003700a173800047
:100bf400002020000080600000f0a7000000ea0050
:100c04000000e9004f00de000040780001003700da
:100c14000040eb000080fa00000006000200fa0029
:100c2400000f78001e007800e20f5000060032002a
:100c3400e30f500006003200e10f500007003a00b5
:100c440072eea80006003700730ea80004003700f7
:100c5400732ea8000000000001003700000000000f
:100c64000080fa00000006000400fa001007980053
:100c74000040eb00004f7800110037001e80fb009d
:100c84006a00b90080007800600021000080400004
:100c9400900078001e009000808f500007003a00fa
:100ca4001e80fb006a00b90080007800600021000b
:100cb400008040008000eb00010878001e4fe8002f
:100cc4001e407800e94f5000ecff36000080fa0027
:100cd400000006000800fa00100798002207980098
:100ce4003307980000d0bf000004a2000004e00015
:100cf400020032000040eb00280037000040eb0007
:100d0400004f7800210037001e80fb006a00b90004
:100d1400800078006000210000804000100078000e
:100d24000000e00018003a001e80fb006a00b900d1
:100d34008000780060002100008040009e00900048
:100d4400010878001e80fb006a00b900800078006a
:100d540080002100008040002e019000be01900020
:100d64000288be001e80fb006a00b9008000780083
:100d7400c0002100008140006000b8000089be006e
:100d840010c0b300050037001e4fe8001e40780075
:100d9400e94f5000dcff36000040eb000080fa0011
:100da400000006000200fa00000f78001e00780020
:100db4000000e00003003200e10f50001c0032008c
:100dc4001f00370001e1a9002028a90042062000e5
:100dd4008000eb0060002100aefe07000028a9009f
:100de4004100200064210a00400800000421ef00b3
:100df400703e2000400888003100200098210a003d
:100e0400000100000021a8000041a90011002000f9
:100e140054210a000001000001e1a8002028a800d4
:100e240010c0b30000f0b70010c0b30005003700d5
:100e34002028a9000070ef0010c0b30001003700a3
:100e44000040eb000080fa00000006000400fa00f5
:100e5400100798001e0090000000e0000b003a000c
:100e64001e00900010000700d1cc2c000100b80037
:100e74004308de00004f780040c6b3009e4078006f
:100e840080cf500003003e000400370000c0eb0098
:100e94000300370040c6b300004f78001e407800be
:100ea4000080fa00000006000200fa00000f78003b
:100eb4001e007800030007004200de000080fa00f4
:100ec400000006000600fa00200798002e0090009b
:100ed4000000400080007800c0c02000008f400067
:100ee4004158800000e02f00808060002e009000b8
:100ef4000100700040588800090ba8002e009000e3
:100f0400ef0f50000b003e002e0090001100200057
:100f14000008dd00100798000000000081598000df
:100f24001e009000008060000000e000fbff320023
:100f34000b0037002e0090007000500011002000bc
:100f44000008dd001007980000000000915980009f
:100f54001e009000008060000000e000fbff3200f3
:100f64001e007800100078000080fa0000000600df
:100f74000a00fa0030079800410798006000b800a2
:100f8400008fbe000000eb00200798000800370027
:100f94003e009000cbff07008000eb001e0f4000d6
:100fa4005e9748002e0090000000e800200798009b
:100fb400ae0090004e009000808f5000f4ff390086
:100fc4002e0090000000e0000c0032002e00900083
:100fd4000000d1008000eb003e024000ae824800d9
:100fe4002e0090008000eb000001be000400be0053
:100ff40018fe070000007800010037000000eb0035
:101004000080fa00000006000200fa00000f7800d9
:101014001e0078000000e00003003a00000ea80063
:1010240010c0b300010037000040eb000080fa005c
:10103400000006000200fa00000f78001e0078008d
:101044000000e00016003a00002bef00000620002c
:1010540010588800042bef0000032000305888004b
:10106400082bef00000820005058880000082000da
:101074000060880000f020001060880001eba800e8
:101084000000000001608000000028000080600073
:101094000000e000fbff320010c0b3000100370085
:1010a4000040eb000080fa00000006000800fa008f
:1010b400d801070010002000d8fe07000000eb0054
:1010c40038ff07000000eb00daff07000000eb0028
:1010d400cdff07000040eb00604798000000eb00e4
:1010e400000f780040002000100798003000200016
:1010f400200798002e009000fbfd070071142600c5
:101104002e00900006fe0700f1ff27002e0090003d
:1011140014fe07001e009000f3fd0700cfe3a900b2
:10112400cfc3a900cfa3a900f1ff20001e009000a7
:10113400fbfd0700f1cf27001e00900009fe070009
:1011440099e3a90099c3a90099a3a900f1ff270075
:101154002e009000f2fd0700f1cf27002e00900032
:1011640000fe07001f6ea9001f4ea9002e0090006c
:10117400cffd0700660047001efe07001000200098
:101184007ffe07000004e00037003200801a2600ca
:1011940005fe07001000200079fe07006140600092
:1011a400e1406000200020000008dd00ee409000d7
:1011b4000124a10000c07000604798006e409000b8
:1011c400644060000080fb000000ea004f00de0085
:1011d40000407800e1406000300020000008dd009d
:1011e400ee4090000134a10000c0700060479800f8
:1011f4006e409000684060000004e00003003a0084
:101204006e4090000024a100604798006e4090005a
:10121400704060000080fb000000e9004f00de0029
:1012240000407800e1406000400020000008dd003c
:10123400ee4090000144a10000c070006047980097
:101244006e40900044800a00000000000080fb0013
:10125400610060004900dd00d17280000190a100ae
:1012640001007000d07288006e40900070406000f1
:101274000004e00003003a001e0090009afd0700fd
:10128400060037006e409000704060000004e000eb
:10129400020032001e00900085fd07000000eb00f4
:1012a400eafe07000080fb00000f78001e007800b3
:1012b4000ffe0700afff37000000fa000023ef0025
:1012c4000223ef000423ef000623ef00f0ff2000c9
:1012d4004018880040052d00501888000c23ef00aa
:1012e4000e23ef001023ef001223ef001423ef006e
:1012f4001623ef001823ef001a23ef001c23ef003e
:101304001e23ef002023ef002223ef002423ef000d
:101314002623ef002823ef0000002c00c01c8800c7
:1013240000002c00701e88009a23ef00d023ef00e9
:101334009c23ef00d223ef00c0002000f01c8800a3
:10134400c0002000a01e8800a023ef00d623ef00d9
:10135400a223ef00d823ef00a423ef00da23ef0049
:10136400a623ef00dc23ef00a823ef00de23ef0029
:10137400aa23ef00e023ef00ac23ef00e223ef0009
:10138400ae23ef00e423ef00b023ef00e623ef00e9
:10139400b223ef00e823ef00b423ef00ea23ef00c9
:1013a400b623ef00ec23ef00b823ef00ee23ef00a9
:1013b400ba23ef00f023ef00bc23ef00f223ef0089
:1013c40000012000f01d880000012000a01f8800fb
:1013d400c023ef00f623ef00c223ef00f823ef0051
:1013e400c423ef00fa23ef00c623ef00fc23ef0031
:1013f400c823ef00fe23ef0080002800b01c880003
:1014040080002800601e88000080fa0000000600aa
:101414000000fa000080fa00000006000000fa0054
:101424004140800000022000008060000000e000d5
:1014340002003200f6ff070008a8a9000080fa00a5
:10144400000006000000fa000080fa000000060018
:101454000000fa0041408000000420000080600089
:101464000000e00002003200f6ff070008c8a900ef
:101474000080fa00000006000000fa000080fa0074
:10148400000006000000fa00a140800000202000b7
:10149400008060000000e00002003200f6ff070058
:1014a4001528a9000080fa00000006000000fa00d8
:1014b4000080fa00000006000000fa00a14080004d
:1014c40000402000008060000000e00002003200c4
:1014d400f6ff07001548a9000080fa000000060086
:1014e4000000fa000080fa00000006000000fa0084
:1014f400a140800000802000008060000000e00027
:1015040002003200f6ff07001568a9000080fa0007
:10151400000006000000fa000080fa000000060047
:101524000000fa00a140800000002100008060005b
:101534000000e00002003200f6ff07001588a90051
:101544000080fa00000006000000fa000080fa00a3
:10155400000006000000fa00a14080000000220004
:10156400008060000000e00002003200f6ff070087
:1015740015a8a9000080fa00000006000000fa0087
:101584000080fa00000006000000fa00a14080007c
:1015940000002400008060000000e000020032002f
:1015a400f6ff070015c8a9000080fa000000060035
:1015b4000000fa00007c80000080fa0000000600b1
:1015c4000200fa00faff0700000f78001e007800fe
:1015d400240007000004e00002003200000028009c
:1015e400710007001e0078002a0007000004e000d4
:1015f40002003200000024006b0007001e00780087
:10160400320007000004e000020032000020200045
:10161400650007001e0078003a0007000004e0009f
:1016240002003200000820005f0007001e0078005e
:10163400420007000004e000020032000004200021
:10164400590007001e0078004a0007000004e0006b
:101654000200320000012000530007000080fa005d
:10166400000006000400fa00100798000040eb0098
:10167400004f78001e0090000000e00002003d00d2
:1016840010c0b300004f78001e4078000080fa00bc
:10169400000006000400fa00100798000040eb0068
:1016a400004f78009e00900000002400008060003d
:1016b4000000e0000200320010c0b300004f7800c8
:1016c4001e4078000080fa00000006000400fa00c2
:1016d400100798000040eb00004f78009e00900037
:1016e40000202000008060000000e00002003200c2
:1016f40010c0b300004f78001e4078000080fa004c
:10170400000006000400fa00100798000040eb00f7
:10171400004f78009e0090000008200000806000c8
:101724000000e0000200320010c0b300004f780057
:101734001e4078000080fa00000006000400fa0051
:10174400100798000040eb00004f78009e009000c6
:1017540000042000008060000000e000020032006d
:1017640010c0b300004f78001e4078000080fa00db
:10177400000006000400fa00100798000040eb0087
:10178400004f78001e009000700060000000e00030
:101794000200320010c0b300004f78001e407800f1
:1017a4000080fa00000006000200fa00000f780032
:1017b4009e80ea00007c800000806000007c88003d
:1017c4000080fa00000006000000fa00802fef00fd
:1017d4000080fa00000006000200fa00000f780002
:1017e40021028000200f2000008060001e00700095
:1017f400200288000080fa00000006000000fa00c1
:10180400c3e8a80000000000000000000080fa0007
:10181400000006000000fa001c0007004400070056
:101824008e000700f5ff070000022000eaff070012
:10183400a1fe0700720ea900722ea9001fcea900f6
:1018440072eea80056eea90056aea900572ea900c4
:1018540023cea900760ea900762ea9005aeea9007f
:101864005aaea9005b2ea900004180000010a00020
:101874000041880001428000000720000100700040
:10188400004288000080fa00000006000000fa0010
:10189400062eef00222eef003e2eef005a2eef0010
:1018a400762eef00f001200010708800d0ff2c008d
:1018b400f070880030ff2c00d07188000080eb00ad
:1018c400b07288000080eb00907388000c2eef004b
:1018d400282eef00442eef00602eef007c2eef0048
:1018e4000a2eef00262eef00422eef005e2eef00b0
:1018f4007a2eef00082eef00242eef00402eef008a
:101904005c2eef00782eef00f001200000708800bc
:10191400d0082000e0708800f0082000c071880022
:1019240000402000a07288000080fa000000060039
:101934000000fa0010002300307c880060092000b9
:10194400407c88008c2fef0010042000507c88001d
:1019540010102000707c880060092000807c8800c2
:1019640010042000907c88009a2fef00b82fef001d
:10197400ba2fef00002def00a42fef00a62fef00e9
:10198400a82fef00aa2fef00ae2fef00b02fef002b
:10199400b22fef000001eb0060042000710520006d
:1019a40043f8200080497800814978008249780012
:1019b4000080fa00000006000000fa00dcff0700c7
:1019c4000080fa00000006000000fa00007c80009d
:1019d4000080fa00000006000000fa00f8fe07008c
:1019e4000080fa00000006000000fa0076ff0700fd
:0819f4000080fa00000006006b
:020000040000fa
:1019fc006a100000200000008000000004100000ad
:101a0c000200000082000000ffff00000610000032
:101a1c0064000000800000000010000004000000c2
:081a2c00800000000000000032
:020000040000fa
:101a3400000f78009e00780021808800ffff3700a7
:101a44000000fa00a0062100800778002008210089
:101a5400000188000080fa00000006000000fa007f
:081a64000080fa0000000600fa
:020000040000fa
:020000040002f8
:04be0000ffff000040
:020000040000fa
:020000040002f8
:04be2000ffffff0021
:020000040000fa
:020000040002f8
:04be3000ffffff0011
:020000040000fa
:020000040002f8
:04be3800bfffff0049
:020000040000fa
:020000040002f8
:04be40007453ff0038
:020000040000fa
:020000040002f8
:04be5000dfffff0011
:020000040000fa
:020000040002f8
:04be58000000ff00e7
:020000040000fa
:020000040002f8
:04be60000000ff00df
:020000040000fa
:020000040002f8
:04be68000000ff00d7
:020000040000fa
:020000040002f8
:04be70000000ff00cf
:020000040000fa
:020000040002f8
:04be7800ffffff00c9
:020000040000fa
:020000040002f8
:04be8000ffffff00c1
:020000040000fa
:020000040002f8
:04be8800ffffff00b9
:020000040000fa
:020000040002f8
:04beb000ffffff0091
:020000040000fa
:020000040002f8
:04bec000ffffff0081
:020000040000fa
:020000040002f8
:04bed000ffffff0071
:020000040000fa
:020000040002f8
:04bee000ffffff0061
:020000040000fa
:020000040002f8
:04bef000ffffff0051
:00000001FF
